:020000040800F2
:100000000004002061120008611300086113000859
:1000100061130008611300086113000861130008F0
:1000200061130008611300086113000891130008B0
:1000300061130008611300086113000881140008AF
:1000400061130008612400086113000861130008AF
:10005000611300086113000881220008B122000822
:10006000E12200081123000841230008311F000885
:10007000611F0008911F0008C11F0008F11F000840
:1000800021200008512000086113000861130008B6
:100090006113000861130008611300087123000850
:1000A0006113000861130008611300086113000860
:1000B0006113000861130008611300086113000850
:1000C0006113000861130008611300086113000840
:1000D0006113000861130008512B00086113000828
:0C00E000E123000891240008C12400085E
:1000F0002DE9F041414B424A4249434D434E82B0C3
:1001000003F1140E4FF47A7C02F1140800244048E5
:1001100042F21077C2F818C0C3F814E0DC609F61A7
:10012000C2F81480D46009602D60366001F0A8FC2C
:10013000384801F0A5FC01F03BFA01F0C1FD36485A
:10014000364901F005FE3648364901F0E1FD3649F1
:10015000364801F0BDFE2F4801F0DAFC0D21344A8B
:10016000324801F0C5FE01F0FBFC324A32495068CA
:10017000324D4FF0FF3340F0007050604B61402231
:100180006B614FF42E712E4B2E48009401F018FC39
:1001900040F6B80140222C4B00942C4801F010FC92
:1001A0004FF4976140222A4B00942A4801F008FC42
:1001B0004FF42E714022284B0094284801F000FC97
:1001C0004FF42E714022264B0094264801F0F8FB94
:1001D0004FF497614022244B0094244801F0F0FB37
:1001E00012480121224A01F093FE204601F040FC12
:1001F00041F2883001F014FCFAE700BFA822002089
:1002000080270020040800200808002000080020A3
:10021000D01D0020A027002040120020240800202C
:1002200034120020908900083C080020A41200200D
:100230006C8A00080000014000080140000C0140E9
:1002400071440008181B002091420008B0270020CC
:1002500001420008C8220020C14000086830002088
:10026000914000082833002051400008E01D002084
:1002700098220020AFF30080AFF30080AFF300803E
:10028000844641EA000313F0030349D1403A23D3E3
:100290000B6803604B6843608B688360CB68C36006
:1002A0000B6903614B6943618B698361CB69C361EE
:1002B0000B6A03624B6A43628B6A8362CB6AC362D6
:1002C0000B6B03634B6B43638B6B8363CB6BC363BE
:1002D00040304031403ADBD230320BD30B68036000
:1002E0004B6843608B688360CB68C360103010310B
:1002F000103AF3D20C3205D351F8043B40F8043BDA
:10030000043AF9D2043208D0D2071CBF11F8013BDD
:1003100000F8013B01D30B8803806046704700BFA3
:10032000082A13D38B07B1D010F00303AED0C3F16A
:100330000403D21ADB071CBF11F8013B00F8013B94
:10034000A4D331F8023B20F8023B9FE7043AD9D30B
:10035000013A11F8013B00F8013BF9D20B78037028
:100360004B7843708B7883706046704700000000C4
:1003700081F0004102E000BF83F0004330B54FEA56
:1003800041044FEA430594EA050F08BF90EA020FC3
:100390001FBF54EA000C55EA020C7FEA645C7FEA56
:1003A000655C00F0E2804FEA5454D4EB5555B8BF79
:1003B0006D420CDD2C4480EA020281EA030382EAEA
:1003C000000083EA010180EA020281EA0303362D7C
:1003D00088BF30BD11F0004F4FEA01314FF4801C4F
:1003E0004CEA113102D0404261EB410113F0004F61
:1003F0004FEA03334CEA133302D0524263EB430318
:1004000094EA050F00F0A780A4F10104D5F1200EB5
:100410000DDB02FA0EFC22FA05F2801841F1000110
:1004200003FA0EF2801843FA05F359410EE0A5F1E4
:1004300020050EF1200E012A03FA0EFC28BF4CF015
:10044000020C43FA05F3C01851EBE37101F00045CB
:1004500007D54FF0000EDCF1000C7EEB00006EEBD8
:100460000101B1F5801F1BD3B1F5001F0CD3490862
:100470005FEA30004FEA3C0C04F101044FEA4452B9
:1004800012F5800F80F09A80BCF1004F08BF5FEA40
:10049000500C50F1000041EB045141EA050130BD20
:1004A0005FEA4C0C404141EB010111F4801FA4F1C3
:1004B0000104E9D191F0000F04BF01460020B1FA18
:1004C00081F308BF2033A3F10B03B3F120020CDA50
:1004D0000C3208DD02F1140CC2F10C0201FA0CF02E
:1004E00021FA02F10CE002F11402D8BFC2F1200C93
:1004F00001FA02F120FA0CFCDCBF41EA0C01904049
:10050000E41AA2BF01EB0451294330BD6FEA040491
:100510001F3C1CDA0C340EDC04F11404C4F120027C
:1005200020FA04F001FA02F340EA030021FA04F38E
:1005300045EA030130BDC4F10C04C4F1200220FAE5
:1005400002F001FA04F340EA0300294630BD21FA23
:1005500004F0294630BD94F0000F83F4801306BFE9
:1005600081F480110134013D4EE77FEA645C18BFDD
:100570007FEA655C29D094EA050F08BF90EA020F74
:1005800005D054EA000C04BF1946104630BD91EA6C
:10059000030F1EBF0021002030BD5FEA545C05D16F
:1005A0004000494128BF41F0004130BD14F58004AE
:1005B0003CBF01F5801130BD01F0004545F0FE4122
:1005C00041F470014FF0000030BD7FEA645C1ABF57
:1005D000194610467FEA655C1CBF0B46024650EA8E
:1005E000013406BF52EA033591EA030F41F40021BA
:1005F00030BD00BF90F0000F04BF0021704730B540
:100600004FF4806404F132044FF000054FF0000114
:1006100050E700BF90F0000F04BF0021704730B5D5
:100620004FF4806404F1320410F0004548BF4042AA
:100630004FF000013EE700BF42004FEAE2014FEAFF
:1006400031014FEA02701FBF12F07F4393F07F4FDA
:1006500081F06051704792F0000F14BF93F07F4F0C
:10066000704730B54FF4607401F0004521F000414F
:1006700020E700BF50EA010208BF704730B54FF0D5
:1006800000050AE050EA010208BF704730B511F0DA
:10069000004502D5404261EB41014FF4806404F112
:1006A00032045FEA915C3FF4DCAE4FF003025FEA94
:1006B000DC0C18BF03325FEADC0C18BF033202EB1C
:1006C000DC02C2F1200300FA03FC20FA02F001FA76
:1006D00003FE40EA0E0021FA02F11444C1E600BF15
:1006E00070B54FF0FF0C4CF4E06C1CEA11541DBFC8
:1006F0001CEA135594EA0C0F95EA0C0F00F0DEF893
:100700002C4481EA030621EA4C5123EA4C5350EA77
:10071000013518BF52EA033541F4801143F48013C8
:1007200038D0A0FB02CE4FF00005E1FB02E506F059
:100730000042E0FB03E54FF00006E1FB03569CF0AE
:10074000000F18BF4EF0010EA4F1FF04B6F5007FB4
:1007500064F5407404D25FEA4E0E6D4146EB060626
:1007600042EAC62141EA55514FEAC52040EA5E50AF
:100770004FEACE2EB4F1FD0C88BFBCF5E06F1ED859
:10078000BEF1004F08BF5FEA500E50F1000041EB90
:10079000045170BD06F0004646EA010140EA02003D
:1007A00081EA0301B4EB5C04C2BFD4EB0C0541EA5F
:1007B000045170BD41F480114FF0000E013C00F374
:1007C000AB8014F1360FDEBF002001F0004170BD98
:1007D000C4F10004203C35DA0C341BDC04F11404B1
:1007E000C4F1200500FA05F320FA04F001FA05F23D
:1007F00040EA020001F0004221F0004110EBD3700A
:1008000021FA04F642EB06015EEA430E08BF20EA35
:10081000D37070BDC4F10C04C4F1200500FA04F3D8
:1008200020FA05F001FA04F240EA020001F000416A
:1008300010EBD37041F100015EEA430E08BF20EADD
:10084000D37070BDC4F1200500FA05F24EEA020E25
:1008500020FA04F301FA05F243EA020321FA04F054
:1008600001F0004121FA04F220EA020000EBD3700B
:100870005EEA430E08BF20EAD37070BD94F0000F0B
:100880000FD101F00046400041EB010111F4801F3F
:1008900008BF013CF7D041EA060195F0000F18BFF0
:1008A000704703F00046520043EB030313F4801F2C
:1008B00008BF013DF7D043EA0603704794EA0C0FE6
:1008C0000CEA135518BF95EA0C0F0CD050EA4106FC
:1008D00018BF52EA4306D1D181EA030101F0004179
:1008E0004FF0000070BD50EA410606BF10461946A1
:1008F00052EA430619D094EA0C0F02D150EA0136AD
:1009000013D195EA0C0F05D152EA03361CBF1046ED
:1009100019460AD181EA030101F0004141F0FE418C
:1009200041F470014FF0000070BD41F0FE4141F410
:10093000780170BD70B54FF0FF0C4CF4E06C1CEA10
:1009400011541DBF1CEA135594EA0C0F95EA0C0FC5
:1009500000F0A7F8A4EB050481EA030E52EA033580
:100960004FEA013100F088804FEA03334FF08055A1
:1009700045EA131343EA12634FEA022245EA1115CE
:1009800045EA10654FEA00260EF000419D4208BF7F
:10099000964244F1FD0404F5407402D25B084FEA2C
:1009A0003202B61A65EB03055B084FEA32024FF4D8
:1009B00080104FF4002CB6EB020E75EB030E22BF35
:1009C000B61A754640EA0C005B084FEA3202B6EBF5
:1009D000020E75EB030E22BFB61A754640EA5C00A4
:1009E0005B084FEA3202B6EB020E75EB030E22BF34
:1009F000B61A754640EA9C005B084FEA3202B6EB35
:100A0000020E75EB030E22BFB61A754640EADC00F3
:100A100055EA060E18D04FEA051545EA16754FEA55
:100A200006164FEAC30343EA52734FEAC2025FEA73
:100A30001C1CC0D111F4801F0BD141EA00014FF002
:100A400000004FF0004CB6E711F4801F04BF0143D3
:100A50000020B4F1FD0C88BFBCF5E06F3FF6AFAEEF
:100A6000B5EB030C04BFB6EB020C5FEA500C50F17F
:100A7000000041EB045170BD0EF0004E4EEA113102
:100A800014EB5C04C2BFD4EB0C0541EA045170BD09
:100A900041F480114FF0000E013C90E645EA060E4D
:100AA0008DE60CEA135594EA0C0F08BF95EA0C0F7B
:100AB0003FF43BAF94EA0C0F0AD150EA01347FF4C3
:100AC00034AF95EA0C0F7FF425AF104619462CE79A
:100AD00095EA0C0F06D152EA03353FF4FDAE1046FD
:100AE000194622E750EA410618BF52EA43067FF44E
:100AF000C5AE50EA41047FF40DAF52EA43057FF4DE
:100B0000EBAE12E700000000000000000000000053
:100B10004FF0FF3C06E000BF4FF0010C02E000BFC9
:100B20004FF0010C4DF804CD4FEA410C7FEA6C5CAC
:100B30004FEA430C18BF7FEA6C5C1BD001B050EA4F
:100B4000410C0CBF52EA430C91EA030F02BF90EA3A
:100B5000020F0020704710F1000F91EA030F58BFF9
:100B6000994208BF90422CBFD8176FEAE37040F05B
:100B7000010070474FEA410C7FEA6C5C02D150EAF9
:100B8000013C07D14FEA430C7FEA6C5CD6D152EAB4
:100B9000033CD3D05DF8040B704700BF8446104679
:100BA00062468C461946634600E000BF01B5FFF778
:100BB000B7FF002848BF10F1000F01BD4DF808ED48
:100BC000FFF7F4FF0CBF012000205DF808FB00BF19
:100BD0004DF808EDFFF7EAFF34BF012000205DF873
:100BE00008FB00BF4DF808EDFFF7E0FF94BF0120C0
:100BF00000205DF808FB00BF4DF808EDFFF7CEFFC1
:100C000094BF012000205DF808FB00BF4DF808EDFF
:100C1000FFF7C4FF34BF012000205DF808FB00BFD0
:100C20004FEA410212F5001215D211D56FF4787314
:100C3000B3EB625212D94FEAC12343F0004343EAB7
:100C4000505311F0004F23FA02F018BF4042704792
:100C50004FF00000704750EA013005D111F000401C
:100C600008BF6FF0004070474FF00000704700BFB2
:100C70004BB942B9002908BF002802D04FF0FF311C
:100C8000084600F03DB882B0EC462DE9005000F077
:100C90001FF8DDF804E002B00CBC70470000000053
:100CA0002DE9704F089E14461D468046894600F087
:100CB0002FF804FB01F3A4FB00AB00FB05329344C7
:100CC000B8EB0A0869EB0B09C6E90089BDE8708F2B
:100CD0002DE9704F089E14461D468046894600F057
:100CE00067F900FB05F5A0FB04AB04FB0154A3442A
:100CF000B8EB0A0869EB0B09C6E90089BDE8708FFB
:100D0000704700BF0000000000000000000000006D
:100D100000292DE9F00FC0F2A1800024002BC0F2C1
:100D20009880154606460F46002B3FD18A4258D977
:100D3000B2FA82F34BB1C3F1200201FA03F720FAB1
:100D400002F29D4000FA03F61743290CB7FBF1F2BB
:100D500001FB1277A8B200FB02F34FEA164C4CEAF3
:100D60000747BB4209D97F1902F1FF3C80F005819A
:100D7000BB4240F20281023A2F44FF1AB7FBF1F363
:100D800001FB137100FB03F0B6B246EA0141884251
:100D900008D9491903F1FF3780F0F180884240F209
:100DA000EE80023B43EA0242002303E08B420AD971
:100DB00000231A461046194614B1404261EB410126
:100DC000BDE8F00F7047B3FA83F8B8F1000F40F0B8
:100DD00088808B4202D3824200F2E280002301220B
:100DE000E8E712B90123B3FBF2F5B5FA85F2002A60
:100DF0003AD17F1B280C1FFA85FC0123B7FBF0F1C9
:100E000000FB11770CFB01F24FEA164848EA07474E
:100E1000BA4207D97F1901F1FF3802D2BA4200F273
:100E2000C4804146BF1AB7FBF0F200FB12700CFB06
:100E300002FCB6B246EA0040844507D9401902F1E7
:100E4000FF3702D2844500F2AE803A4642EA0142C0
:100E5000B0E7E443524263EB430362E7404261EB95
:100E600041014FF0FF3459E79540C2F1200927FABC
:100E700009F126FA09F99740280CB1FBF0F800FBBC
:100E800018111FFA85FC0CFB08F349EA07094FEA21
:100E9000194747EA01418B4206FA02F608D9491977
:100EA00008F1FF327AD28B4278D9A8F1020829449E
:100EB000C91AB1FBF0F300FB13170CFB03F21FFA86
:100EC00089F949EA0747BA4207D97F1903F1FF3187
:100ED00060D2BA425ED9023B2F44BF1A43EA0843AC
:100EE0008CE7C8F1200225FA02F103FA08FC27FA80
:100EF00002F320FA02F207FA08F741EA0C0C4FEA73
:100F00001C49B3FBF9F109FB11331FFA8CFA0AFBF8
:100F100001FB17433A0C42EA03439B4505FA08F0EC
:100F200008D913EB0C0301F1FF3235D29B4533D9BD
:100F300002396344CBEB0303B3FBF9F209FB123331
:100F40000AFB02FABFB247EA0347BA4508D917EBD2
:100F50000C0702F1FF331BD2BA4519D9023A674494
:100F600042EA0145A5FB0001CAEB07078F424FF09B
:100F700000030AD305D02A461CE76246FDE63B463D
:100F800010E706FA08F68642F5D26A1E002311E73A
:100F90001A46E5E70B46A0E71146CBE7904687E700
:100FA0004346424606E7023A50E702392F4439E702
:100FB0002DE9F00F144605460E46002B43D18A4218
:100FC00053D9B2FA82F757B1C7F1200620FA06F6D4
:100FD00001FA07F302FA07F400FA07F51E43210CA1
:100FE000B6FBF1F201FB1266A0B200FB02F32F0C7C
:100FF00047EA0646B34209D9361902F1FF3780F0B5
:10100000FD80B34240F2FA80023A2644F61AB6FB5B
:10101000F1F301FB136100FB03F0ADB245EA0141BE
:10102000884208D9091903F1FF3680F0E980884227
:1010300040F2E680023B43EA024200231046194692
:10104000BDE8F00F70478B424CD8B3FA83F6002E00
:101050004FD18B4202D3824200F2DD80BDE8F00F17
:101060000023012210461946704712B90124B4FB2F
:10107000F2F4B4FA84F2002A40F08280091B260CB4
:10108000A7B20123B1FBF6F006FB101107FB00F23B
:101090004FEA154C4CEA01418A4207D9091900F17F
:1010A000FF3C02D28A4200F2C8806046891AB1FB36
:1010B000F6F206FB121107FB02F7ADB245EA014555
:1010C000AF4208D92C1902F1FF3180F09B80A74272
:1010D00040F29880023A42EA004210461946BDE8C2
:1010E000F00F704700231A4610461946BDE8F00F6E
:1010F0007047C6F1200522FA05F703FA06F421FA33
:1011000005F301FA06FB20FA05F53C434FEA1448C3
:10111000B3FBF8FC08FB1C331FFA84F909FB0CFA3B
:1011200045EA0B0B4FEA1B4545EA03439A4502FA91
:1011300006F204D91B190CF1FF356FD3AC46CAEB8C
:101140000303B3FBF8F508FB153309FB05F91FFA98
:101150008BFB4BEA0347B94504D93F1905F1FF332F
:1011600062D31D4645EA0C4CACFB0223C9EB0707D2
:101170009F424FF000054AD346D062462B465DE7BA
:101180009440C2F1200921FA09FC914020FA09F9A2
:10119000260CBCFBF6F806FB18CCA7B207FB08F33D
:1011A00049EA01094FEA194141EA0C4C634500FA4A
:1011B00002F509D91CEB040C08F1FF323BD2634560
:1011C00039D9A8F10208A444C3EB0C0CBCFBF6F31C
:1011D00006FB13C107FB03F21FFA89F949EA014133
:1011E0008A4207D9091903F1FF3022D28A4220D955
:1011F000023B2144891A43EA084343E73A4605E79C
:10120000334618E70A4666E7B0409042B5D20CF183
:10121000FF32002312E7334632460FE79A458DD955
:10122000ACF1020C23448AE7B9459AD9023D274420
:1012300098E70346DEE79046C6E70238214435E7E3
:10124000704700BFAFF30080AFF30080AFF30080C2
:10125000FEE700BFAFF30080AFF30080AFF3008084
:1012600072B6304880F30988022383F31488BFF3F1
:101270006F8F2D4B2D4A93420BD2D943114421F04D
:10128000030119444FF05532043B43F8042F8B42BD
:10129000FBD1274B83420CD226491A1D891A21F013
:1012A000030119444FF05532043B43F8042F8B429D
:1012B000FBD101F05DFD2049204B99420BD2C84380
:1012C000184420F003001E4C04300023E258CA509A
:1012D00004338342FAD11B4B1B4A93420AD2D943AF
:1012E000114421F0030119440022043B43F8042F68
:1012F0008B42FBD1154D164CFFF7A2FFAC4204D236
:1013000054F8043B9847AC42FAD3124D124CFEF706
:10131000EFFEAC4204D254F8043B9847AC42FAD3F7
:10132000FFF796FF000800200000002000040020C6
:10133000000400200308002000080020D410002032
:10134000A88C0008D41000201C370020EC000008F6
:10135000EC000008EC000008EC000008AFF300808F
:10136000FEE700BFAFF30080AFF30080AFF3008073
:1013700072B6FEE7AFF30080AFF30080AFF30080FA
:1013800000F0F6FA00DF00BFAFF30080AFF300809B
:1013900000B5EFF30983203383F3098800F028F8C0
:1013A0005DF804FBAFF30080AFF30080AFF3008083
:1013B00008B5094A094B002199600720DA6010211D
:1013C00000F0D6F80A20202100F0D2F8BDE808404D
:1013D0000B20802100F0CCB80003FA0500ED00E0FE
:1013E000202383F311887047AFF30080AFF30080B0
:1013F000002383F311887047AFF30080AFF30080C0
:1014000000B5FFF7EDFF174B5B681B051AD5EFF32F
:1014100009834FF0807243F8042CA3F1200282F379
:10142000098811490A690968907C8968926868B1DD
:10143000914294BF0022012272B10C4A43F8082C59
:101440005DF804FBFFF7D4FF5DF804FB914234BF65
:1014500000220122002AF0D1054A43F8082C5DF849
:1014600004FB00BF00ED00E0E01100208113000844
:1014700084130008AFF30080AFF30080AFF3008067
:1014800008B5FFF7ADFF00F0BBF8FFF7B1FFBDE80F
:101490000840FFF7B5BF00BFAFF30080AFF3008097
:1014A0002DE9F04FC1F80CD0D0F80CD0BDE8F08F8A
:1014B00000B5FFF79DFF2846A04700F0D9FA5DF878
:1014C00004FB00BFAFF30080AFF30080AFF30080F8
:1014D00000F0030330B4DB00FF249C40994001225C
:1014E00000F01F039A4020F0030303F1604303F56B
:1014F0006143D3F800534009800025EA040400F159
:1015000060400C4300F56140C3F80043C0F88021FF
:10151000026030BC704700BFAFF30080AFF30080C3
:1015200010B400F01F0301249C4000F00303FF22CD
:10153000DB0002FA03F34109094A20F003002031DD
:1015400000F1604042F8214000F56140D0F80023EE
:1015500022EA0303C0F800335DF8044B704700BF74
:1015600000E100E0AFF30080AFF30080AFF3008054
:1015700000F00303DB00FF229A40994020F00300B3
:1015800000F1604000F56D40836923EA02030B43DC
:1015900083617047AFF30080AFF30080AFF300804A
:1015A000FEE700BFAFF30080AFF30080AFF3008031
:1015B00000B583B0FFF7FCFE00F0F2F800F078F819
:1015C00040210A4800F0E4F9094B01221861002388
:1015D000027483F3118862B6C82100930548064B54
:1015E00000F0EEF903B05DF804FB00BFD41000205A
:1015F000E011002008110020A1150008AFF30080C1
:1016000038B5114B1B699A7C0AB1013A9A740F4C98
:10161000E36822680133A242E36013D09568013D7C
:1016200095607DB91368D168D5605C6013682360EC
:10163000FFF7DEFE10698847FFF7D2FE2268936845
:10164000002BEFD038BD00BFE0110020D0110020EA
:1016500010B40B4603E09C688268944202D31B6876
:101660008B42F8D103605A684260586010605DF8A0
:10167000044B7047AFF30080AFF30080AFF30080FE
:101680000346006802681A6053607047AFF3008039
:1016900090E80600116090E80C005360704700BFAE
:1016A0000346006802681A60704700BFAFF300800D
:1016B000044B4FF0FF3100225B601B609960DA60E1
:1016C000704700BFD0110020AFF30080AFF300805F
:1016D00030B40C4D03612C68C260A368994204D9F0
:1016E0002468C91AA3688B42FAD304606368AC42C9
:1016F000436060601860816002D0A368591AA160DD
:1017000030BC7047D0110020AFF30080AFF30080F1
:101710000368084A934204D0996882680A449A6030
:101720000368426800211360036842685A60C16020
:10173000704700BFD0110020AFF30080AFF30080EE
:1017400010B50446FFF74CFE037C0D2B0FD8DFE8E5
:1017500003F01E0E0E070E0B0E0E0E0E0E0E0E0BCF
:1017600043699A6801329A602046FFF791FF4FF073
:10177000FF300022A168074B606122741B689A68E1
:101780008A42FBD223605A6862605C601460FFF793
:101790002FFE10BDE0110020AFF30080AFF30080FA
:1017A000024B00225B601B609A607047E0110020D2
:1017B00010B400228168084B044602741B689A68C2
:1017C0008A42FBD223605A68204662605C601460E3
:1017D0005DF8044B704700BFE0110020AFF30080BC
:1017E00038B5084C142325692874AB742046FFF7DC
:1017F00047FF01232061037429462069BDE8384072
:10180000FFF74EBEE0110020AFF30080AFF3008081
:1018100030B54B1C87B0054611D00C4C01A823698C
:101820000B4AFFF755FF2846FFF7DAFF049B13B179
:1018300001A8FFF76DFF2369586907B030BDFFF7B6
:10184000CFFF024C2369586907B030BDE01100207A
:1018500041170008AFF30080AFF30080AFF30080C2
:10186000F0B4DFF858C04161DCF810708568BC68DE
:101870000646A5420DD80022634602741B689A688A
:101880009542FBD933605A6872605E601660F0BCA6
:10189000704700233B7463461B689A689442FBD9E7
:1018A0003B605A6801247A605F601760CCF8106072
:1018B000347439463046F0BCFFF7F2BDE011002029
:1018C00038B50F4C20462569FFF7DAFE0123206169
:1018D0000374142220460023AC682B74AA740346B8
:1018E0001B689A68A242FBD22B605A6829466A603C
:1018F0005D6015600069BDE83840FFF7D1BD00BFED
:10190000E0110020AFF30080AFF30080AFF3008060
:1019100038B50E4C20462569FFF7B2FE0123206141
:10192000037420460023AC682B7403461B689A6836
:10193000A242FBD82B605A6829466A605D60156038
:101940000069BDE83840FFF7ABBD00BFE0110020E3
:10195000044B1A681B6992689B689A4200D87047CA
:10196000FFF7D6BFE0110020AFF30080AFF3008097
:10197000034B1B699B7C0BB1FFF7CABFFFF7A0BFEE
:10198000E0110020AFF30080AFF30080AFF30080E0
:10199000F0B400F11C0400220227142600F11805FF
:1019A0000774867485610462C46181600163427456
:1019B000C2628262F0BC7047AFF30080AFF3008078
:1019C000F8B5069D1E460446FFF70AFD2439431864
:1019D000C3604650C36810495D60D0F80CC0002356
:1019E00000F11C054FF0020E00F118061427CCF888
:1019F000201019468260026380F810E087748661C7
:101A00004374C36283620562C561FFF729FFFFF774
:101A1000EFFC2046F8BD00BFB1140008AFF3008012
:101A200008B50146FFF7DCFC0620FFF7F1FEFFF7E3
:101A3000DFFC08BDAFF30080AFF30080AFF30080A0
:101A400038B50A4B1D69AB6905F11804A3426861FA
:101A500007D02046FFF724FEFFF7AAFEAB69A3429A
:101A6000F7D10E20BDE83840FFF7BABEE0110020E4
:101A700000B5FFF7B5FC5DF804EBFFF7E1BF00BF71
:101A80000023406000608360704700BFAFF30080B8
:101A900070B51C4B846806461D6974B3AA68A368B8
:101AA000934206D2237CA260042B19D0052B10D0C0
:101AB0004BB128463146FFF7CBFD6E610420BDE8EF
:101AC0007040FFF78DBE2046FFF7E2FDFFF770FE86
:101AD000EFE72046FFF7DCFD6169FFF7B9FDE8E7B6
:101AE0002046FFF7D5FD6169FFF7B2FD6369AA687B
:101AF0009C68A3689342D5D3DBE78560EB6AC3603B
:101B0000E86270BDE0110020AFF30080AFF3008009
:101B100008B5FFF765FCFFF7BBFFFFF769FC08BDE1
:101B200000B50246FFF75CFC836823B10020FFF795
:101B30005FFC5DF804FB064B01201969916019698F
:101B4000C96AD1601B69DA62FFF752FC5DF804FBD9
:101B5000E0110020AFF30080AFF30080AFF300800E
:101B600010B5154B1869FFF73BFCC46AE368C36204
:101B70002268A2421AD0016B4BB11A689A4203D074
:101B80009268914238BF1146DB68002BF5D1816025
:101B90002046FFF775FDA060C26A0021E260C462C2
:101BA000FFF75EFEFFF724FC204610BD0023A36074
:101BB000FFF71EFC204610BDE0110020AFF30080AF
:101BC00010B5FFF70DFC0368054C0B60016023693D
:101BD00000204B608A60C860FFF70AFC10BD00BFA0
:101BE000E0110020AFF30080AFF30080AFF300807E
:101BF00008B5826A037C1143082B81620BD0092B44
:101C000000D008BD436919408B42FAD1FFF7D0FDDF
:101C10000023436108BD43691942F7D108BD00BFE5
:101C200070B504680546A0420E4609D0E3686068B6
:101C30003343E360A168FFF7DBFF2468A542F5D1D9
:101C400070BD00BFAFF30080AFF30080AFF3008042
:101C500008B5FFF7C5FBFFF7E3FFFFF779FEFFF7D6
:101C6000C7FB08BDAFF30080AFF30080AFF3008087
:101C700070B5114B04461D690846FFF7B1FBAB6A0E
:101C800014EA03060CD111B9FFF7B2FB70BD6C6109
:101C90000820FFF7BDFD00280ADBAB6A04EA030653
:101CA0007042304023EA0003AB62FFF7A1FB70BD36
:101CB000FFF79EFB304670BDE0110020AFF30080BF
:101CC00008B500F05DFA00F0D3F8064800F0D0FC4B
:101CD00000F00EF800F02CF800F0EAF8BDE808403B
:101CE00001F04EB840890008AFF30080AFF30080E8
:101CF00000F02EBCAFF30080AFF30080AFF30080A4
:101D00000122002302704360704700BFAFF30080E0
:101D100010B50446FFF764FB416000F089FC022324
:101D20002370FFF765FB10BDAFF30080AFF30080B9
:101D300000F01EBDAFF30080AFF30080AFF3008072
:101D4000002301220270436083600C30FFF798BECD
:101D500010B50446FFF744FB416000F041FD02234B
:101D60002370FFF745FB10BDAFF30080AFF3008099
:101D700010B50446FFF734FB00F0DAFD204600F012
:101D80009FFD01232370FFF733FB10BDAFF30080ED
:101D900008B5FFF725FB00F0C3FDFFF729FB08BDE1
:101DA00008B5FFF71DFB00F0C3FDFFF721FB08BDE1
:101DB00010B50446FFF714FB0323037000F0C0FDC9
:101DC000044B02201B69A360FFF70AFDFFF710FB1D
:101DD00010BD00BFE0110020AFF30080AFF3008022
:101DE00010B50446FFF7FCFA0323037000F0D8FD9A
:101DF000044B02201B69A360FFF7F2FCFFF7F8FA1F
:101E000010BD00BFE0110020AFF30080AFF30080F1
:101E10000C30FFF77DBE00BFAFF30080AFF3008052
:101E2000FFF79EBEAFF30080AFF30080AFF30080FA
:101E3000014B5B6883607047001000E0AFF30080E7
:101E4000084B094982685B6809689B1AC2685B1A7B
:101E50009342836004D80269934238BF036170479C
:101E6000C3607047001000E0F4110020AFF3008061
:101E700030B50B480B4C0C4D87B000234FF0FF31B1
:101E80000A4A0393029023600493019505915368D5
:101E900001A80393FFF7D4FF039B236007B030BD75
:101EA000411E0008F4110020311E0008001000E05F
:101EB00000F08EBEAFF30080AFF30080AFF3008080
:101EC000002301220270437083704360704700BF9B
:101ED00010B50446FFF784FA416000F091FE02233A
:101EE0002370FFF785FA10BDAFF30080AFF30080D9
:101EF00010B50446FFF774FA00F0FAFE0123637090
:101F0000FFF776FA10BD00BFAFF30080AFF300809B
:101F100010B50446FFF764FA00F002FF0123A37036
:101F2000FFF766FA10BD00BFAFF30080AFF300808B
:101F300008B5074B074A196801F00F01596013688B
:101F40000BB150689847BDE80840FFF759BA00BF89
:101F500000000240F8110020AFF30080AFF30080D2
:101F600010B5074B074819688268C1F303110C01CB
:101F70005C600AB1C0689047BDE81040FFF740BA06
:101F800000000240F8110020AFF30080AFF30080A2
:101F900010B5074B074819680269C1F303210C0209
:101FA0005C600AB140699047BDE81040FFF728BA6D
:101FB00000000240F8110020AFF30080AFF3008072
:101FC00010B5074B074819688269C1F303310C0348
:101FD0005C600AB1C0699047BDE81040FFF710BAD5
:101FE00000000240F8110020AFF30080AFF3008042
:101FF00010B5074B07481968026AC1F303410C0486
:102000005C600AB1406A9047BDE81040FFF7F8B93C
:1020100000000240F8110020AFF30080AFF3008011
:1020200010B5074B07481968826AC1F303510C05C4
:102030005C600AB1C06A9047BDE81040FFF7E0B9A4
:1020400000000240F8110020AFF30080AFF30080E1
:1020500010B5074B07481968026BC1F303610C0602
:102060005C600AB1406B9047BDE81040FFF7C8B90B
:1020700000000240F8110020AFF30080AFF30080B1
:102080000A4930B400230A4D0A4C0B601A4619461F
:10209000E8580C33542B0160A15002F10802F7D12B
:1020A000054B4FF0FF325A6030BC704730120020B1
:1020B000E0880008F811002000000240AFF3008023
:1020C000F8B5467A012404FA06FC194D2F681CEA7B
:1020D000070F28D1DFF860C04CF83620467A0CEBA9
:1020E000C60CCCF80430437A9C4027437B062F6013
:1020F00004D0104B5C6944F001045C6103680F2656
:102100001D68002425F00F051D60057A436806FA56
:1021100005F51D6003681C603AB1807A0901FFF77C
:10212000D7F92046F8BD2046F8BD1046F8BD00BFDF
:102130003012002000100240F8110020AFF30080A0
:1021400010B5437A01229A40084C807A236823EA2A
:1021500002032360FFF7E4F923685B0604D1044B14
:102160005A6922F001025A6110BD00BF30120020EE
:1021700000100240AFF30080AFF30080AFF30080A7
:10218000F0B4154B0021154A4FF0FF34186945F69D
:10219000BF561C61124819610725DF68DC60D960F1
:1021A000566091601560C2680E4942F08072C2604C
:1021B00008680D4A40F001000860D96941F080517B
:1021C000D961D96941F00061D961136843F4807322
:1021D0001360F0BCFFF754BF0010024010E000E0B5
:1021E000F0ED00E0001000E000700040AFF3008070
:1021F000204B1A68194642F001021A600B681D4A0A
:102200009B07FBD55368114623F0030353605368C3
:1022100053604B68174A13F00C03FAD1106811464B
:1022200000F0F90010605360136843F480331360CA
:102230000B68104A9803FBD55368114643F4A0235A
:102240005360136843F0807313600B68094A9B0165
:10225000FBD5094B0948102150601960536811469D
:1022600043F0020353604B6803F00C03082BFAD1D0
:10227000704700BF001002400020024000840500AB
:1022800008B50648064A4368012151615B68002190
:102290009847BDE80840FFF7B3B800BF34120020EC
:1022A00000040140AFF30080AFF30080AFF3008083
:1022B00008B50648064A436802215161DB680121DE
:1022C0009847BDE80840FFF79BB800BF34120020D4
:1022D00000040140AFF30080AFF30080AFF3008053
:1022E00008B50648064A4368042151615B6902212A
:1022F0009847BDE80840FFF783B800BF34120020BC
:1023000000040140AFF30080AFF30080AFF3008022
:1023100008B50648064A436808215161DB69032174
:102320009847BDE80840FFF76BB800BF34120020A3
:1023300000040140AFF30080AFF30080AFF30080F2
:1023400008B50648064A4368102151615B6A0421BA
:102350009847BDE80840FFF753B800BF341200208B
:1023600000040140AFF30080AFF30080AFF30080C2
:1023700010B5184B5C6904F478725A61A30622D434
:1023800060061AD4210612D4E2050AD4A30504D5A6
:10239000114809214368DB6C9847BDE81040FFF7FE
:1023A0002FB80D48082143685B6C9847EEE70A4850
:1023B00007214368DB6B9847E6E707480621436837
:1023C0005B6B9847DEE7044805214368DB6A984762
:1023D000D6E700BF0004014034120020AFF30080B4
:1023E00010B51C4B5C6904F47C425A6162052AD426
:1023F000230522D4E0041AD4A10412D462040AD41E
:10240000230404D514480F214368DB6F9847BDE8C7
:102410001040FEF7F5BF10480E2143685B6F9847E8
:10242000EEE70D480D214368DB6E9847E6E70A4862
:102430000C2143685B6E9847DEE707480B21436831
:10244000DB6D9847D6E704480A2143685B6D9847DF
:10245000CEE700BF0004014034120020AFF300803B
:1024600008B50748074A43684FF480315161D3F8F3
:10247000843010219847BDE80840FEF7C1BF00BF77
:102480003412002000040140AFF30080AFF300805D
:1024900008B50748074A43684FF400315161D3F843
:1024A0008C3011219847BDE80840FEF7A9BF00BF56
:1024B0003412002000040140AFF30080AFF300802D
:1024C00008B50748074A43684FF480215161D3F8A3
:1024D000943012219847BDE80840FEF791BF00BF35
:1024E0003412002000040140AFF30080AFF30080FD
:1024F00008B506206021FEF7EBFF07206021FEF7FC
:10250000E7FF08206021FEF7E3FF09206021FEF7C6
:10251000DFFF0A206021FEF7DBFF17206021FEF7B6
:10252000D7FF28206021FEF7D3FF01206021FEF7AE
:10253000CFFF29206021FEF7CBFFBDE808402A200D
:102540006021FEF7C5BF00BFAFF30080AFF300808E
:102550000148FFF7D5BB00BF34120020AFF3008065
:102560000F2930B415D8426801F0030352F8314006
:102570009B000F229A40C4F303149C4021F00303F4
:1025800003F1804303F580339D6825EA020222436C
:102590009A6001228A404368D44353F8313013F0E3
:1025A000010F144B9D6814BF154325409D6043687F
:1025B00053F8313013F0020F0E4BDD6814BF154392
:1025C0002540DD60436803EBC1014B6843B1094B13
:1025D00019680A431A605A6814405C6030BC70473E
:1025E000044B59680A435A601A6814401C6030BC96
:1025F000704700BF00040140AFF30080AFF30080DC
:10260000012303FA01F1084BCA431868104018600F
:10261000586810405860986810409860D868024028
:10262000DA605961704700BF00040140AFF30080D9
:1026300038B503780546012B13D0002404E001349B
:10264000FFF78EFF132C0BD06B68214653F8343004
:1026500028465B07F3D40134FFF7D2FF132CF3D1E4
:1026600038BDFFF745FFE8E7AFF30080AFF3008028
:1026700030B4154A154B9169154C41F07D019161BB
:1026800002681449DA6082685A604568124A1D601F
:10269000C56803F58053E560456965600569256097
:1026A0008469CC60046A4C60C4690C60416AD16082
:1026B000C16A5160816A1160026BDA60826B5A6094
:1026C000426B1A6030BC70470010024000080140A5
:1026D000000C01400010014000140140AFF30080E5
:1026E0000B0700D47047FEF743BE00BFAFF3008076
:1026F0000B0710B5044632D4626A0F2312681168C2
:1027000021F00F011160626A117A526803FA01F137
:102710001160226A1268116821F00F011160226AAB
:10272000117A52688B40136063681A68A2B1042260
:1027300022701B68204698472378042B0CD0FEF7A4
:102740004FFEA3682BB10022A26018465A61FFF722
:102750002FF8FEF74DFE10BD02232370EFE7FEF7C2
:1027600007FEC9E7AFF30080AFF30080AFF300804E
:102770002DE9F041124D134B134C144E4FF6FF72DE
:1027800028461A80FFF7DCFA114A06F10C0341F2E1
:102790000A0841F218072046EA612E626B62C5F80A
:1027A0002880EF62FFF7CCFA0A4A06F118032436B4
:1027B000C4F82880E762E26123626662BDE8F081C6
:1027C000401200203C12002070120020EC8800080B
:1027D0000030014000380040AFF30080AFF30080CC
:1027E00010B503780446012B25D06368A26A5B8983
:1027F00022F4706213F4006FE36A18BF42F4A0621F
:1028000023F4706318BF43F4A063E362E369A26238
:1028100000221A806268E3695189072241F44171FC
:1028200089B21980E3699A80E3691A8892B242F00A
:1028300040021A8010BD1A4B98420DD0194B984295
:102840001CD0226AE36912680C339360626AE36900
:1028500012680C339360C8E70A21134A2346006AC2
:10286000FFF72EFC114A2346606A0A21FFF728FC75
:102870000F4B9A6942F480529A61E2E70A210A4AB0
:102880002346006AFFF71CFC084A2346606A0A21B7
:10289000FFF716FC064BDA6942F48042DA61D0E7B2
:1028A0004012002070120020F1260008E1260008E6
:1028B00000100240AFF30080AFF30080AFF3008060
:1028C00010B503780446022B00D010BDC269002366
:1028D0001380C2699380006AFFF732FC606AFFF7D9
:1028E0002FFC094B9C4208D0084B9C42EDD1084B71
:1028F000DA6922F48042DA61E7E7054B9A6922F44B
:1029000080529A6110BD00BF40120020701200205A
:1029100000100240AFF30080AFF30080AFF30080FF
:10292000436801211A895B6801FA02F25A61704713
:10293000436801211A895B6801FA02F21A61704743
:1029400010B4036A124C1B68DC60036A1B68596090
:10295000046A836A24682360436A1B68DA60436AF6
:102960001B685960426AC36A126843F080031360AF
:10297000036A1B681A6842F001021A60436A1B6806
:102980001A6842F001021A605DF8044B704700BFFC
:10299000A0120020AFF30080AFF30080AFF30080FF
:1029A00010B4036A124C1B68DA60036A1B68596032
:1029B000026A836A126843F080031360436A1B68EB
:1029C000DC60436A1B685960426AC36A126813601C
:1029D000036A1B681A6842F001021A60436A1B68A6
:1029E0001A6842F001021A605DF8044B704700BF9C
:1029F0003C120020AFF30080AFF30080AFF3008003
:102A000010B402694368126800F11804D968D460F0
:102A1000036901221B6800295A600269C3681268B1
:102A200014BF222120210B43136003691B681A681D
:102A300042F001021A605DF8044B7047AFF300806A
:102A400010B403690F22196800230C6824F00F04E6
:102A50000C6001690C7A496802FA04F40C6041695F
:102A600009680C6824F00F040C6041690C7A49680D
:102A7000A2400A608268938182681382826893828E
:102A80005DF8044B704700BFAFF30080AFF30080E8
:102A90000B0710B5044623D463690F211B681A681D
:102AA00022F00F021A6063691A7A5B6801FA02F277
:102AB0001A6063685A6832B1A3689A8992B242F088
:102AC00040029A816368022262701B682BB1204623
:102AD00098476378022B00D010BD0023637010BDAF
:102AE000FEF746FCD8E700BFAFF30080AFF30080ED
:102AF0000B0710B5044621D4A3783BB96368DB68A3
:102B0000DBB1218B204689B2984710BD23690F2085
:102B10001B680222196821F00F0119602369197AD4
:102B20005B6800FA01F119606368A2709B6843B1A9
:102B300020469847A378022B03D010BDFEF718FC5F
:102B4000DAE70023A3702046BDE81040FFF758BF26
:102B5000F8B51E4E40F20F13B468A289258897B2CB
:102B6000ADB22B40A288E3B14FF6FF6323807368B8
:102B70001B69B3B115F0080F14BF10210021EA073B
:102B800048BF41F00401A80748BF41F008016A07A7
:102B900048BF41F02001E80548BF41F040010B4823
:102BA00098476A060DD57B060BD54FF6BF73238079
:102BB00027F04007BFB27368A7815B680BB1034879
:102BC0009847BDE8F840FEF71BBC00BFA4120020E8
:102BD00010B5074C2046FFF773F9064B064808214D
:102BE00003F10C02A060E1602361626110BD00BFCF
:102BF000A41200201C89000800440040AFF30080AC
:102C000038B503780446012B30D00023A3706370DD
:102C10002046A568FFF714FFA3682D4A204693427B
:102C2000636808BF2B4A5B6918BF2B4AB2FBF3F3FA
:102C30009BB22B8100232A88AA882B8063685B8B38
:102C400043F040039BB22B8263689B8B43F0C1032C
:102C50009BB2AB8263681B8B43F4045343F00C03B9
:102C60009BB2AB81BDE83840FFF7CABE1B4B984210
:102C700018D063681B8B03F4A053B3F5805F0CD0AE
:102C80002269A3681268043393606269A3681168BB
:102C9000043300228B602283B7E7E36843F4A06328
:102CA000E360EDE723460C210D4A0069FFF708FABF
:102CB000234660690C210B4AFFF702FA0A4B2620D3
:102CC000DA69C02142F40032DA61FEF701FCD0E794
:102CD0000038014000366E01001BB700A41200202E
:102CE000F12A0008912A000800100240AFF300808A
:102CF00043691B68DA6043691B6859604269C368AD
:102D0000126843F09203136043691B681A6842F02B
:102D100001021A60704700BFAFF30080AFF300807C
:102D200030B403690F241B681D6825F00F051D6072
:102D300003691D7A5B68AC401C6003691B68DA603C
:102D400003691B6859600269C368126843F0820313
:102D5000136003691B681A6842F001021A6030BCF4
:102D6000704700BFAFF30080AFF30080AFF3008087
:102D7000FFF73EBAAFF30080AFF30080AFF30080FF
:102D8000704700BFAFF30080AFF30080AFF3008067
:102D9000013A30B48D18A94214D20B461C785A78E7
:102DA000023302EB042292B2104480B2824284BF0A
:102DB000013080B29D42F1D8CB432B4423F0010374
:102DC00002331944A94201D030BC70470B7830BCA3
:102DD0001B02184480B2834284BF013080B2704726
:102DE00038B50D4C0822657C237C143D05EB03258A
:102DF000ADB2284404F11A0180B2FFF7C9FF2A4698
:102E000004F12201FFF7C4FF10B94FF6FF7038BD7F
:102E100040BA80B238BD00BF64140020AFF3008018
:102E200070B4C478134B0C44E4B2DC7082780D0AA1
:102E30002A44D2B29A70467895425E700078187033
:102E400003D90136F6B25E708EB1C9B28C420CDA8B
:102E50000132D2B29A70074B3AB95A780132D2B2E3
:102E60005A7012B91A7801321A7070BC704701306A
:102E70001870EAE7641A0020AFF30080AFF3008017
:102E800010B5084C014620680830FFF7C9FF064A14
:102E90002368507814789178D2781C72587299729D
:102EA000DA7210BDC0120020641A00200000000079
:102EB00008B5002005491422FFF76AFF10B94FF644
:102EC000FF7008BD40BA80B208BD00BF7214002078
:102ED000084A094B0021118003F5C872597628333E
:102EE0009342FBD10549064B0A204FF480620870DB
:102EF0001A807047A41A0020C4120020A01A0020D3
:102F0000681A0020AFF30080AFF30080AFF30080B9
:102F100010B4074B074A19880024147021B101230B
:102F200013705DF8044B704718805DF8044B7047D0
:102F3000A41A0020A01A0020AFF30080AFF3008095
:102F40002DE9F04F964C974ADFF87482DFF87492BF
:102F500004F13603032889B01360C8F80030D9F8AB
:102F6000006018D002282AD08F4DA37B6988452B9A
:102F700001F10101698000F0D1802A88EB880132DB
:102F800001332A80EB80894B894F00223A801A70E6
:102F900009B0BDE8F08F737E03F00F03032BF2D16D
:102FA000338A002BEFD1814B08211970804F039297
:102FB000029301F0D5FE7F48039A029B33E07E4BDB
:102FC000D9780131C9B2D97061B999780131C9B2E2
:102FD000997039B959780131C9B2597011B9197854
:102FE00001311970717E724F724801F0FD050023A6
:102FF000052D3B80038000F0C380002900F0C780CE
:10300000338A002B40F0E28001F00F010329674B67
:10301000BBD10821197004900392029301F0A0FE25
:103020000498039A029B1D7805F0200101F0FF0C23
:10303000002900F05481002214215B4DDFF888A1A3
:103040007276028084F82F1028223A80502284F869
:103050002E20327A4FF0060C84F82A20727ABAF8C1
:10306000021084F82B20B27ABAF800E084F82C2001
:10307000F07A4B4A84F82D00307B84F82600707B70
:1030800084F82700B07B84F82800F07B84F817C010
:1030900084F82900B0886084F088A4F81AE0A0843D
:1030A000A1833188E18371882184717EC90640F152
:1030B0000681002182F8311082F830103A8800260B
:1030C000170A402162742774A17584F8356084F86A
:1030D0003460668606200293FFF782FE3749C043BC
:1030E0000A884527013292B24FEA122EE2746086B6
:1030F000E67366752675268384F812E0A7730A8046
:10310000FFF7D6FEEA8BC04301322083EA83029B9D
:10311000A98800220131A9801A7039E7244F94F858
:1031200010B0617C3B8801EB0B2B9B452FDC237D92
:103130001FFA8BFB9806A7F800B02AD1637D43BB2A
:10314000DFF884A0BAF80030002B40F0BF80BAF856
:103150000210002940F0BA8003920293FFF7A8FE04
:1031600001464FF6FF708142039A029B00F00B81EB
:103170002A88EB8901320133EB812A800B4B04E76B
:10318000B27E0132D2B2782AB27600F09580074B37
:10319000FBE62A88AB89013201332A80AB81F6E74E
:1031A00064140020541A00206C1A0020601A0020B9
:1031B0005814002060140020581A00205A140020CF
:1031C000A81A0020C01200205C1A0020B37E5D1EE9
:1031D000B576002BDBD1F37E082B00F0BD800139E2
:1031E000012940F2B680042B9BBF03219940302176
:1031F000C9B20133AF4DB176F376EB8C0133EB847A
:10320000717E01F00F014B1E072BC0D80FF2040C8A
:103210005CF823F077320008433200087F32000860
:10322000353200088F310008353200088F31000830
:1032300035320008A04BDFF890A2112284F82F202D
:1032400002E7DFF884A260234FF002084FF0040C7D
:103250004FF0050EB8202C2284F82E3084F82F1061
:1032600084F8368084F837C084F838E084F8390070
:103270003A80914BEDE6DFF850A21221E3E78E4B46
:103280000421197004900392029301F069FD0498DF
:10329000039A0088029BD8F800101160002843D0E0
:1032A000328A002A40D0283218213A8084F82F1020
:1032B000804DDFF814A2C9E673767F4B65E60520E2
:1032C000B82182F8300082F83110F7E6E18B7B48B4
:1032D000994236D02A88784B01322A8055E605F08B
:1032E000100101F0FF0971B101250421112235827D
:1032F00086F81BC07176A0F800C06E4D84F82F20B0
:10330000DFF8C4A1A0E60188DFF8C0C1F9B1ED077C
:1033100032D5A6F81090758AA94288BF058000882A
:1033200030820021F176B6E71A7895077FF52DAE49
:1033300028211022398084F82F205E4DDFF888A1E3
:1033400084E6008CBAF802108842C3D104E708462C
:10335000E7E7052B7FF447AF574B002272768022B8
:103360001A70029301F0FCFC142284F82F20514DB6
:10337000DFF854A1029B67E6358A002DCBD0ACF86C
:1033800000502846CDE7E07D4C4E062809D00128A4
:103390001DD02A882B8A013201332B822A80464B8A
:1033A000F3E5AB8B0133AB83424B04910392029361
:1033B000FFF716FD0499039A8842029B17D0598B98
:1033C0001A8C0131013259831A843B4BDDE5AA8AFC
:1033D00096F8221001320829AA82364A7AD0518AF8
:1033E000138B0131013313835182334BCDE5B08C04
:1033F000B6F81AC00690708CB68B314B07960190C8
:1034000003E0304928338B427DD013F80F1CA3F121
:10341000280605910029F4D033F8241C069881422F
:10342000EFD133F8221C01988142EAD133F8281CED
:103430006145E6D133F8261C07988142E1D194F822
:103440002F101D4B002011F0040FC9F800601870F8
:10345000DFF868C040F044829CF82EC0ABF1140045
:103460004FEA1C1C4FEA8C0CCCEB000080B206909B
:103470000598DFF85CB000F00F00059006988BF817
:1034800000C038800598022800F0C480069810B962
:10349000880700F0C580B4F826C0CDF814C00598A0
:1034A000B6F808C0604500F07082102284F82F2022
:1034B000CAE500BF6C1A0020601A002064140020C6
:1034C000EC1200207C1400205C1A00206014002004
:1034D000A01A0020B28C4FF6F6718A424FF000001D
:1034E0008CBF09320832E98A86F82200B284A08BA8
:1034F000628BBAF8026001316383A6832084E9827B
:10350000E283BC4B04E694F82F3003F03F03022B18
:1035100067D0B84B94F82F10B74A49073FF535AD3F
:1035200092F82DC0B5F824B092F829E092F82C90CA
:1035300092F82B8092F826100BF1010B82F829C02B
:10354000DFF8C4C292F8286092F827000EF1010E4D
:10355000A5F824B092F82AB05FFA8EFE82F828907F
:1035600082F827804FF014094FF028088CF80010DB
:103570004FF0500C82F82DE082F82C6082F82B007E
:1035800082F82A1082F826B082F82F90A7F80080DF
:1035900082F82EC0BEF1000F0CD10136F6B282F8CF
:1035A0002C603EB90130C0B282F82B0010B9013155
:1035B00082F82A10628CB4F824C0B4F81AE0B4F887
:1035C0001C808E4EBAF80000BAF802103280A28435
:1035D000A4F822C0A4F81EE0A4F820806083A18390
:1035E0006CE5874B854ADDF818C005921A88DFF82C
:1035F00018B2824900236245A1F800C08BF8003060
:1036000000F0CB81698D012211447A4B69858BF8DA
:1036100000207FE701F03F0CBCF1120F7FF436AFC2
:10362000C90601D5318AD9B9717E01F00F00013880
:1036300007283FF6AAAC0FF2080C5CF820F000BF98
:10364000F338000895380008A537000863370008EC
:103650004337000831370008AB340008153700083D
:1036600006F10C0003920293FFF7DAFB654994F828
:103670002AC00878039A60450590029BD4D1DFF8F0
:1036800078C148789CF82BC006906045CCD1DFF813
:1036900068C188789CF82CC001906045C4D1DFF8DF
:1036A00058C1C9789CF82D008142BDD1059896F883
:1036B0001BC030730698F17370730198B073BCF13E
:1036C000000F1ED196F818C0B07EB17DC0EB0C0083
:1036D000A0EBD100C0B201445FFA81FCC1B211F08D
:1036E000800F18BF4142F07D18BFC9B2A0EB900017
:1036F0000144C9B286F816C001EBDC0C86F818C08C
:10370000F17596F818C00120002186F81AC01870CB
:10371000318289E71978374ACC077FF536AC00212A
:10372000717610211170029301F01AFB029B2CE4B8
:103730001A78D0077FF529AC072100227176B2767E
:1037400023E4388818B10293FFF79AFB029B94F8A0
:103750002F20D20700F1B6803A88002A7FF4A5AE68
:1037600013E4388818B10293FFF78AFB029B94F8A0
:103770002F2012F0010200F0AA801A78D00740F141
:103780009E80002207217176B27632820120029358
:10379000FFF776FB029B10221A70029301F0E0FA09
:1037A000029B82E694F82F0010F0010F2ED011F04A
:1037B000100F2BD1328A002A7FF4E7AB38880293AE
:1037C000013080B2FFF75CFB029B38881A7842F028
:1037D00010011970074910B142F012020A700293E9
:1037E00001F0BEFA01200821002230827176F276C3
:1037F000029B22E5601A002064140020621400205D
:10380000A41A0020641A0020A01A002080060DD5FA
:1038100094F8349094F835501068B7F800C045EA31
:1038200009252844C5EB0C0510603D80388858B147
:10383000CD0609D4197841F0020119700392029360
:10384000FFF71EFB029B039A94F8300094F83110A6
:10385000A94D01EB0021B08A89B2814205952980EA
:1038600000D819B9DDF814C0ACF800000599088833
:103870001978708289073FF488ABA0480021018045
:1038800004900392029301F06BFA029B039A04984E
:10389000FFF7C9BB1978C90706D594F82F009849D6
:1038A00000F03F00122842D020221A70029301F04B
:1038B00057FAD9F8002000215176029B2AE6062209
:1038C000727663E7072100227176B2765EE7197897
:1038D000C9077FF541AF052132827176FFF755BBED
:1038E000707620221A70029301F03AFA029BFFF7D9
:1038F0004CBB18788349C0077FF547AB38884FF039
:10390000030C4FF0400E002586F819C081F800E046
:10391000358238B142250D7003920293FFF7B0FA59
:10392000029B039A754800210180FFF774BB91F850
:103930002E1001F0F000502840F309814FEA111CCD
:103940007149ACF1050C00200D784FEA8C0C8BF816
:103950000000604580F21B8104EB000E9EF836509B
:10396000F146002D00F01381012D00F01481022D8D
:1039700000F0D08099F837E00EEB0009BEF1000F9F
:1039800000F005815FFA89F0E3E75D48B0F828C0F0
:10399000708984457FF489AD42E61E46DFF8708168
:1039A0004FF0280CCDF81CB002E0092A7AD8134653
:1039B0000CFB038101F1180090F801B05A1CD2B23F
:1039C000BBF1000F0AD0BBF1070FEED11EB180781A
:1039D000B17E8842E9D90CFB0386E6E7DDF81CB02E
:1039E0000E468BF80030DDF818C003224FF00008B7
:1039F0000421464BB2763276F175A6F804C086F8FB
:103A0000168086F81B80B4F822E0187859789A78E6
:103A1000A6F806E0DB78B4F81AE03073A08B717377
:103A2000B27394F8291094F82820F373A6F800E0F4
:103A300094F8273094F826E070800120B2727372F7
:103A4000F17286F808E070763082C9F80060FFF7FE
:103A500017FA94F82E3003F0F002502A7FF70DACDD
:103A60001B092949A3F1050E4FEA8E0E8BF8008041
:103A700043460A780FE0E01890F83620844662B199
:103A8000012A35D0022A19D09CF8370000EB030C2C
:103A900018B15FFA8CF37345EDDB8BF800300A70D8
:103AA000FFF7EBBBDDF81CB08BF80020002E9AD19D
:103AB0002A8D144B01322A85FFF767BA90F83780B8
:103AC000B8F1040FE0D190F838E090F839000A70AE
:103AD00040EA0E2005998BF80030B0F5B76F34BF7F
:103AE00003464FF4B76308807382B382FFF7C5BB08
:103AF0000133DBB2CFE700BF621400206014002066
:103B000064140020601A0020AC1A0020581A00200B
:103B1000C41200209EF837A0BAF1040F7FF42AAF38
:103B20009EF838C09EF839E0DFF874904EEA0C2C0D
:103B3000BCF5B76F34BFE6464FF4B76E8BF80000A4
:103B40000D70A9F800C0A6F812E0A6F814E094F8E9
:103B5000285094F8290094F826C094F827E003210F
:103B6000B572F072717686F808C086F809E0012017
:103B700002930392FFF784F90848002131823980CB
:103B80000180029B42251D700490FFF746BA8BF816
:103B900000000D70DBE70130C0B2DAE660140020EF
:103BA00062140020AFF30080AFF30080AFF3008019
:103BB00040BA80B2704700BFAFF30080AFF300801F
:103BC0000A1E034609DD0548054900680A8083424C
:103BD00003D0194692B2FCF753BB7047A81A0020D5
:103BE00060140020AFF30080AFF30080AFF30080DB
:103BF0002DE9F0073B4B3C4EB3F81CC0B3F81E80D8
:103C00003A4D33460122002705E0092903F10C0350
:103C100017D017460A461888511CC9B20028F4D09C
:103C20005C88002CF1D06045EFD14445EDD1304A9D
:103C3000304C1068918822782F70586019819A72E0
:103C400024E0294B0122002701E017460A46188884
:103C5000511CC9B21C4610B9588800283CD009290B
:103C600003F10C03F1D1082A2A70224B11D093F8EA
:103C700000C0214923460A4652F8060D0968928879
:103C800043F8041B60609A8084F80AC0BDE8F0071E
:103C900070470027DFF864A0DFF86490124A93F8B9
:103CA00000C0B8463B46917ADCB2C1EB0C01B94288
:103CB00003F10103C4BFA046CFB2082B02F10C02EE
:103CC000F1D108EB48048AF8007089F8008085F883
:103CD000008006EB8404CCE7064B2F7093F800C0FD
:103CE000C7E700BF64140020B01A0020AD1A0020FE
:103CF0007A140020111B002080140020AE1A00202E
:103D0000101B0020AFF30080AFF30080AFF3008002
:103D1000F0B4154A154D1678154B0136F6B21670EB
:103D20000027012205E02A70CAB2092A03F10C0318
:103D300018D05C881888511C204380B20028F2D02B
:103D4000987A301A7728EEDD184600F8017B0130AA
:103D50002A70CAB25F70092A00F8017B077003F16C
:103D60000C03E6D1F0BC7047111B0020AD1A0020F7
:103D7000B01A0020AFF30080AFF30080AFF30080F3
:103D80002DE9F84F304C2388292B12D92F4D0026CE
:103D9000AB8A2680B3F5807F04D0B3F5007F0CD0CA
:103DA000BDE8F88F2A4FEA8C3B889A4212D0BDE8D2
:103DB000F88F00232380BDE8F88F254BE98C1A8803
:103DC0009142F4D12A8D5B889A42F0D1BDE8F84F38
:103DD000FFF70EBF2A8D7B889A42E8D1FFF708FFD4
:103DE000022329466B7551F8168F1A4BB1F804C09F
:103DF0001A689B88C5F82080A5F824C0C5F816204D
:103E00008B80B5F81C90B5F81E80B7F800C0B5F8E7
:103E100024B0D5F820A07F88082006216B814FF0C0
:103E20002A032E75C5F80620A5F804B0C5F800A031
:103E3000A5F82690A5F82880A5F81CC0EF83287364
:103E400069732380BDE8F88F5814002064140020A3
:103E50005C1A0020981A0020AFF30080AFF30080B6
:103E60002DE9F84F504E4FF6FF73F28B95B29D42FD
:103E70004FD0DFF858814D4BB8F8000019886840E2
:103E800008423BD04A4B4B4F1D885B883D807B806E
:103E9000DFF83CA1B7F80290474B01244FF0000C2B
:103EA00005E0092A03F10C030DD0A4461446198835
:103EB000621CA942D2B21846F3D159884945F0D1C3
:103EC0008AF800C003E0082C8AF800402AD0034694
:103ED00053F8040F9B883060B380384B384A1F88F2
:103EE0001568948837480E3700210822C6F8065016
:103EF0001F80848071733273BDE8F88F318CB8F8FD
:103F000002005B8848401842BCD12A4F3A80798031
:103F1000BEE7338CAB42ACD12B4B18689B8830602A
:103F2000B380DAE7FF2106221F4800F081FF244B0F
:103F3000244A798898881F68B8F8009002F1300BFD
:103F40003473DFF890A0B8F80280C6F80670C6F89F
:103F5000167090809082194A00234FF02A0C318508
:103F6000F5840121062534740424CAF800B0A6F8AB
:103F70001C90A6F81E80A2F800C086F8203086F8B3
:103F8000213086F8223086F8233086F8243086F8EF
:103F900025303375B37373747175F173B5747573BC
:103FA000F474BDE8F88F00BF64140020541400209E
:103FB0005C140020141B0020B01A002058140020AC
:103FC000981A00206A140020808900085C1A0020DA
:103FD000AD1A0020541A0020AFF30080AFF3008028
:103FE00010B50446FDF7FCF900211430FDF718FE6A
:103FF0002046A1692346034AFDF76AFBFDF7F8F95D
:1040000010BD00BFE13F0008AFF30080AFF30080B8
:1040100008B5FDF7E5F9C36813B1FDF7E9F908BD87
:1040200081690346024AFDF753FBFDF7E1F908BD3C
:10403000E13F0008AFF30080AFF30080AFF30080F2
:104040000C2303604FF0FF30704700BFAFF30080D8
:1040500030B585B00A4869460422FDF7B1FD094C28
:1040600025464FF0FF310420FDF702FE0648217877
:1040700000F00EFE2378032BF3D105232B70F0E71D
:1040800004080020E4350020308A0008AFF30080E7
:1040900000B585B0064869460022FDF791FD4FF056
:1040A000FF310020FDF7E4FD024800F0F1FDF6E7E6
:1040B0000C080020408A0008AFF30080AFF30080B6
:1040C00000B585B04FF4803216486946FDF778FD9B
:1040D00015491648FDF73CFE1448FDF799FE1448B3
:1040E00000F0D6FC1148FDF79BFE1048FDF740FE9E
:1040F0004FF480304FF0FF31FDF7BAFDB0F5803F4F
:10410000F6D109490948FDF723FE0848FDF780FE6E
:10411000074800F0ADFD0548FDF782FE0348FDF7B6
:1041200027FEE5E700080020140800207012002098
:1041300010080020AFF30080AFF30080AFF30080E1
:10414000F8B51D21294800F0F3FA1C210446274840
:1041500000F0EEFA1B210746244800F0E9FA1F217F
:104160000646224800F0E4FAFF07054634D4E0068C
:1041700029D4610620D46A0715D5EB060AD4C12ECE
:1041800007D01B4800F084FDBDE8F840174800F058
:104190009FBBF8BD164800F07BFD14481F2110227C
:1041A00000F0A6FAEBE7124800F072FD0F481F215D
:1041B000042200F085FAE0E70D4800F069FD0B48A5
:1041C00000F086FBD7E70A4800F062FD07481D2192
:1041D000102200F08DFACCE7054800F059FD0348A5
:1041E0001C21012200F084FAC1E700BF2008002052
:1041F000508A0008AFF30080AFF30080AFF3008077
:1042000008B50A4CFDF7ECF8E36883F00203E360BD
:10421000FDF7EEF80648FDF77BFCFFF791FFFDF791
:104220009FFC4FF47A70FDF7FBFBEBE700080140C1
:10423000D01D0020AFF30080AFF30080AFF300800B
:1042400000B50E4B83B0198836290DD90C4AA1F15F
:10425000360312689BB200920A4836210A4A00F0DF
:104260006FFA03B05DF804FB002300930548064A8B
:1042700000F066FA03B05DF804FB00BF581400209C
:10428000541A00202008002064140020AFF300809E
:104290002DE9F04F644A654B12698DB01A60FDF745
:1042A0009FF8634808A90222FDF78AFC6946614825
:1042B0000422FDF785FC04A910225F48FDF780FC6D
:1042C0005E48FDF725FC5E4800F002FBFDF748FC68
:1042D000FEF7FEFD5B4B5C495C4A5D4C2A254FF0C6
:1042E000EF0C46F67F7E1D704AF6C0004FF0280B9B
:1042F0004FF0630A4FF07D094FF0A70846F27F4761
:104300004FF6FF76FF25088083F801B083F802A0FE
:1043100083F8039083F8048083F805C0A4F802E0D2
:104320004F8016805580208000F0DAFC4948FFF766
:104330006FFE4948FFF76CFEFDF75AF8474DDFF86E
:104340002C81474E2F463E481C2100F0F1F9454B89
:104350009B685A0730D439480224FDF7D9FBFDF792
:104360003FF8022C35D0042C23D13F4C04F5C879FA
:1043700001E04C450ED00220C8F80040FEF7E0FDF9
:104380002B882834002BF4D0FFF76AFDFFF758FF85
:104390004C45F0D1FFF7D4FE3921294800F0C8F987
:1043A0001C21274800F0C4F9FDF7DAFBFDF720F8DF
:1043B000C9E7FFF7ADFCEDE74FF0FF311620FDF741
:1043C00057FC04461D48FDF7A3FBFDF709F8022C36
:1043D000C9D11B4800F0A4F94306DBD5184840F2C8
:1043E000EE511F4A00F01CFA28800028D2D0B08974
:1043F000FFF7DEFBB0F5006F40F6060309D09842E8
:10440000ECD1FFF7BDFC3B88002BE7D0FFF718FF8E
:10441000E4E70120FEF794FD3B88002BDED0FFF798
:104420001FFDFFF70DFFD9E7E0110020203300202A
:104430000808002094270020BC220020D01D002066
:1044400020080020981A00205C140020541400203A
:104450005C1A002080270020A82200205814002089
:1044600064140020000C0140C4120020C01200207F
:1044700010B50B4A0B4B12690B4C1A60FCF7B0FFDE
:104480000220FDF7ADF9FCF7B3FF0848217800F0F2
:10449000FFFB07480121044AFDF73AFDEEE700BFA4
:1044A000E01100209C27002098220020608A00084C
:1044B000A4120020AFF30080AFF30080AFF30080C0
:1044C00008B5FCF78DFF044B00211868FDF7C8F90B
:1044D000FCF78EFF08BD00BF9C270020AFF30080D3
:1044E00001480021FDF7B4BB00080020AFF30080B5
:1044F00001480021FDF7ACBB08080020AFF30080A5
:1045000001480021FDF7A4BB0C080020AFF3008098
:1045100070B504460E4615460068FDF739FC206864
:1045200031462A46FDF744FC2068BDE87040FDF79F
:1045300037BC00BFAFF30080AFF30080AFF3008063
:1045400070B5037CC1F34115AB4282B0044614D070
:10455000032301AA0221BF268DF805308DF80460DF
:10456000FFF7D6FF9F2301AA204602218DF80550B0
:104570008DF80430FFF7CCFF257402B070BD00BF8A
:1045800070B50D4682B0064605F01F05144645F08D
:104590004005FFF7D5FF3046022101AA8DF80540FE
:1045A0008DF80450FFF7B4FF02B070BDAFF3008088
:1045B000F0B583B07A2302AD05F8043D04460068E7
:1045C0000F461646FDF7E4FB2A4620680121FDF759
:1045D000EFFB394632462068FDF7EAFB2068FDF71D
:1045E000DFFB03B0F0BD00BFAFF30080AFF300808E
:1045F000F0B583B002AD044605F8011D00681F4602
:104600001646FDF7C5FB2A4620680121FDF7D0FBC1
:1046100031463A462068FDF7E3FB2068FDF7C0FB12
:1046200003B0F0BDAFF30080AFF30080AFF30080C4
:1046300070B5002382B0CC090D468DF804308DF89A
:1046400005300646FFF77CFF002C304601AB05F035
:104650001F010CBF01220222FFF7CAFF02AB1C445C
:1046600014F8040C02B070BDAFF30080AFF300800B
:10467000F0B583B0FF2302AD044605F8013DFCF719
:10468000AFFE0C4E022777610120FDF7C9F93761B3
:10469000FCF7AEFE2068FDF77BFB2A46012120686F
:1046A000FDF786FB2068FDF77BFB0120FDF7B8F9DD
:1046B00003B0F0BD000C0140AFF30080AFF3008009
:1046C00000B501F01F0183B061F07F038DF8052074
:1046D000022101AA8DF80430FFF71AFF03B05DF83C
:1046E00004FB00BFAFF30080AFF30080AFF30080A6
:1046F00000B501F01F0183B061F05F038DF8052064
:10470000022101AA8DF80430FFF702FF03B05DF823
:1047100004FB00BFAFF30080AFF30080AFF3008075
:104720001C21FFF785BF00BFAFF30080AFF300800F
:10473000FFF77EBFAFF30080AFF30080AFF30080E0
:104740002DE9F041002482B08DF8004005460F4667
:1047500090461E464FF6FF7406E0FFF769FF830799
:104760000CD4013CA4B24CB11F212846FFF760FFD6
:1047700010F0080F4FF01C012846EED19F2301AA2C
:104780008024284602218DF804308DF80540FFF77B
:10479000BFFEBF2301AA284602218DF804308DF800
:1047A0000540FFF7B5FE284602211022FFF7E8FE7C
:1047B000284603211A22FFF7E3FE06F110023A44CD
:1047C000D2B228460621FFF7DBFE07F5D05310339F
:1047D0009A19C2F3072228460721FFF7D1FE28467F
:1047E00001216A46FFF7E4FE284639464246FFF7B4
:1047F000DFFE26B131462846089AFFF7D9FE082386
:10480000284601AA9F2402218DF804408DF8053026
:10481000FFF77EFE02B0BDE8F08100BFAFF300807D
:10482000F0B50D4683B0392116460446FFF700FF68
:1048300000284BD02046A27C0021FFF7A1FE628A0F
:104840002046120A0121FFF79BFE204604F11203C5
:104850003A210222FFF7CCFE20463A2102220DF136
:104860000603FFF7C5FEBDF8067020463A21022276
:1048700001AB043FADF80670FFF7BAFEBDF80620A5
:104880003346AA4288BF2A4620464FF03A0188BFE5
:10489000ADF80650FFF7ACFE658A2046013DADB28B
:1048A000EAB20C21FFF76CFE20462A0A0D21FFF721
:1048B00067FE204640239E2402216A468DF8004070
:1048C0008DF80130FFF724FEBDF8060003B0F0BDFF
:1048D00038B504460025FFF7CBFE20462A46658200
:1048E0000821FFF74DFE20462A460921FFF748FE22
:1048F00020462A460C21FFF743FE20462A460D217A
:10490000FFF73EFE20460A210F22FFF739FE204620
:104910000B211A22FFF734FE204604211022FFF754
:104920002FFE204605211A22FFF72AFE20460621E7
:10493000FF22FFF725FE204607211F22FFF720FE5A
:10494000204638212022FFF71BFE2046C0210D22E1
:10495000FFF716FE20462A46C121FFF711FE20462A
:10496000C2213222FFF70CFE2046C6211222FFF799
:1049700007FE2046C7210C22FFF702FE2046C42175
:104980001222FFF7FDFD2046227DE421FFF7F8FD0E
:104990002046627DE521FFF7F3FD2046A27DE2215E
:1049A000FFF7EEFD2046E27DE321FFF7E9FD20461B
:1049B000227EE021FFF7E4FD2046627EE121FFF741
:1049C000DFFD2046D4211022FFF7DAFD20462A46DB
:1049D000D621FFF7D5FD2046D7210122FFF7D0FDD4
:1049E00001E0FDF71DF82046EA21FFF721FE10F057
:1049F00001054FF00100F4D120461B21C122FFF731
:104A0000BFFD20461F210422FFF7BAFD257438BDE3
:104A100030B585B061F07F0104AD044605F8011D95
:104A200000688DF80720FDF7B3F92A4620680121B8
:104A3000FDF7BEF9206801210DF10702FDF7B8F975
:104A40002068FDF7ADF905B030BD00BFAFF30080C1
:104A500030B585B004AD044605F8091D0068FDF7C2
:104A600097F92A4620680121FDF7A2F92068012163
:104A70000DF10F02FDF7B4F92068FDF791F99DF8EB
:104A80000F0005B030BD00BFAFF30080AFF3008072
:104A900070B50446FCF7A4FC704D4FF400762E610F
:104AA0000120FCF7BDFF6E61FCF7A2FC0520FCF7BE
:104AB000B7FF204601210422FFF7AAFF204602216A
:104AC0000122FFF7A5FF204605210022FFF7A0FFE6
:104AD00020460621A322FFF79BFF204603210D223B
:104AE000FFF796FF204604210522FFF791FF20469D
:104AF0000721D922FFF78CFF204608213022FFF73B
:104B000087FF204609210622FFF782FF20460B215E
:104B10000022FFF77DFF204611219F22FFF778FF3B
:104B2000204612210822FFF773FF204613211A2284
:104B3000FFF76EFF204618218022FFF769FF20460D
:104B400019214322FFF764FF20461A214222FFF772
:104B50005FFF20461E210822FFF75AFF204625212D
:104B60000922FFF755FF204626210222FFF750FFBA
:104B700020462921B022FFF74BFF20462C2100229E
:104B8000FFF746FF20462D210422FFF741FF204674
:104B90002E219A22FFF73CFF20462F21CA22FFF741
:104BA00037FF20463021E122FFF732FF2046312136
:104BB0003B22FFF72DFF204632217522FFF728FF09
:104BC00020463321CA22FFF723FF20463421E12269
:104BD000FFF71EFF204635213B22FFF719FF204635
:104BE00036217522FFF714FF204637219422FFF764
:104BF0000FFF20463821FF22FFF70AFF2046392108
:104C00000522FFF705FF20463A21FF22FFF700FFAC
:104C100020463B210022FFF7FBFE20463C21A0223C
:104C2000FFF7F6FE20463D213222FFF7F1FE204637
:104C30006F213022FFF7ECFE204628211022FFF7DB
:104C4000E7FE20461921FFF703FF432804D0044B59
:104C500001221A70FF2070BD002070BD00080140C5
:104C6000E0350020AFF30080AFF30080AFF30080A9
:104C7000044B10B404241C70012110225DF8044B75
:104C8000FFF7C6BEE0350020AFF30080AFF3008031
:104C90000FB400B59BB01CAB53F8041B01A81A4617
:104CA000009300F065F90948FCF73AFF48B101A804
:104CB00000F00EF901AA01460548FDF719F9FCF7C5
:104CC0004FFF1BB05DF804EB04B07047A027002035
:104CD000A4120020AFF30080AFF30080AFF3008098
:104CE00008B54FF20160FEF713F9024B02221A7069
:104CF00008BD00BFE4350020AFF30080AFF30080B3
:104D0000052910B514D983786BB9C4785CB90279D8
:104D10004379063903EB02238B4213D18379F82BB5
:104D20000BD8012010BD0A48FFF7B2FF002010BDCC
:104D30000848FFF7ADFF002010BD0748FFF7A8FFA8
:104D4000204610BD0548FFF7A3FF204610BD00BF59
:104D5000908A0008808A0008AC8A0008A08A0008AF
:104D6000F8B5284C237813F0420F05D0264D2A7849
:104D7000022A2BD0072A29D0D80703D5224A127835
:104D8000062A2CD013F00C0F07D01F4D2B78052BC3
:104D900011D01E48FFF77CFF2378990603D41A062A
:104DA00001D4DB0606D5184C19482178FFF770FFAF
:104DB00002232370F8BD17486988FEF701FF062318
:104DC00015482B70FFF764FF2378E6E7134E144F66
:104DD00030683978FFF794FF30B92378CCE7114871
:104DE000FFF756FF2378CDE73F8831683A460948F8
:104DF000FBF746FA03230C4800216F802B70FCF769
:104E000027FFEAE7601A0020E4350020D48A000872
:104E1000DC8A0008E8350020C88A0008541A0020FF
:104E200058140020BC8A000804080020AFF300805A
:104E3000F0B4840743D0541E002A3ED0CDB20346BE
:104E400003E0621E002C38D0144603F8015B9A0779
:104E5000F7D1032C2AD9CDB245EA05250F2C45EA16
:104E6000054515D9A4F110073F0903F1100606EB1B
:104E700007161A46156055609560D5601032B2422B
:104E8000F8D104F00F040137032C03EB07130DD9FD
:104E90001E462246043A032A46F8045BFAD8221F2B
:104EA00022F003020432134404F003042CB1C9B20B
:104EB0001C4403F8011BA342FBD1F0BC704714460D
:104EC0000346C6E7000000000000000000000000EC
:104ED00020F0030110F00300C0F1000051F8043B82
:104EE00000F1040C4FEACC0C6FF000021CBF22FA58
:104EF0000CF213434FF0010C4CEA0C2C4CEA0C4C16
:104F0000A3EB0C0222EA030212EACC1204BF51F80E
:104F1000043B0430F4D0C2F1000102EA0102B2FA0B
:104F200082F2C2F11F0200EBD200704700000000C5
:104F3000F0B59BB00D466FF000444FF402774FF68A
:104F4000FF76694600950495ADF80C7002940594BF
:104F5000ADF80E6000F064FD009B00221A701BB0DB
:104F6000F0BD00BF000000000000000000000000D5
:104F700030B4044C0D46134601462A46206830BC26
:104F8000FFF7D6BF880C00200000000000000000E2
:104F90002DE9F04F01F10B05162D83B0064627D9F8
:104FA00035F0070527D4A94225D8304600F048FB44
:104FB000B5F5FC7F26D2C14F4FEAD50C07EBCC03E9
:104FC000DC689C4200F0D2816368E26823F003034E
:104FD00023445868A16840F00105CA6030469160DA
:104FE0005D6000F035FB0834204603B0BDE8F08F6B
:104FF0001025A942D9D900240C232046336003B0E0
:10500000BDE8F08F5FEA552C00F08980BCF1040FF9
:1050100000F260814FEA951C0CF1380C4FEA4C010C
:10502000A64F07EB8101CC68A14205D10CE0002B13
:1050300079DAE468A14207D0626822F00302531BC8
:105040000F2BF4DD0CF1FF3C0CF1010C9B4B3C6988
:1050500003F1080E744500F07E81616821F00301C0
:105060004A1B0F2A00F36481002AC3F814E0C3F836
:1050700010E069DAB1F5007F80F03A81C9088A1042
:105080004FF0010808FA02F803EBC1015A6888687A
:1050900048EA0202A060E1605A608C60C4604FEA96
:1050A000AC030120984090425BD8024206D12CF01C
:1050B000030C400002420CF1040CFAD007EBCC08C0
:1050C0004446E146E3689C4207D146E1002A80F26B
:1050D0005781DB689C4200F04081596821F0030150
:1050E0004A1B0F2AF2DD1C4654F808CFD96845F058
:1050F000010942F001081D44C3F804903046CCF881
:105100000C10C1F808C07D613D61C5F80CE0C5F820
:1051100008E0C5F80480AA5000F09AFA64E77E21FE
:105120004FF03F0C7CE722445068E368A16840F0F0
:105130000105CB6030469960556000F089FA08346B
:10514000204603B0BDE8F08F21444B68304643F061
:1051500001034B6000F07CFA0834204603B0BDE840
:10516000F08FBC68636823F00309A94504D3C5EB3D
:1051700009030F2B00F39180514B524A19681368B1
:1051800005EB010A013304EB090B00F061810AF51C
:10519000805A0AF10F0A2AF47F6A2AF00F0A304671
:1051A00051460192FEF74CFFB0F1FF3F8046019A55
:1051B00000F00181834500F2FB80DFF814C1C34594
:1051C000DCF800305344CCF8003000F04A8112681B
:1051D0003C4901321BBFCBEB080B5B44C1F800809C
:1051E000CCF8003018F0070300F01481C3F1080276
:1051F000C3F5805390440833C244CAF30B0ACAEB88
:10520000030A51463046CDF804C0FEF719FF431C8F
:10521000DDF804C000F03581C8EB0002524442F0D2
:105220000102DCF80030BC425344C7F80880CCF8D7
:105230000030C8F80420DFF898A015D0B9F10F0F9E
:1052400040F2EB806168A9F10C0222F0070201F044
:10525000010142EA010E0520A1180F2AC4F804E05A
:105260004860886000F21181174ABC6811688B425F
:1052700088BF1360154A11688B4288BF136062684B
:1052800022F003029542C5EB020301D80F2B04DC88
:10529000304600F0DDF90024A6E645F0010243F0B7
:1052A0000103254462603046BD606B6000F0D0F9B8
:1052B0000834204603B0BDE8F08F00BF8C0C0020FE
:1052C000F036002098100020EC360020E836002050
:1052D000F4360020BCF1140F61D9BCF1540F00F278
:1052E0008F804FEA153C0CF16E0C4FEA4C0197E6AB
:1052F0004B0A042B58D9142B00F2AD8003F15B024A
:10530000500007EB80008368DFF8B881834200F02B
:105310008A805A6822F00302914202D29B68984226
:10532000F7D1D9687A68E160A3608C60DC60B6E68A
:1053300045F0010742F001012544676030465D6198
:105340001D61C5F80CE0C5F808E06960AA50083492
:1053500000F07EF948E65A68A1E609F1010919F062
:10536000030F04F108047FF4ADAE2DE004F108034F
:105370006469A34208BF0CF1020C3FF467AE23E658
:10538000194448681C4654F8082FDB6840F00105B2
:105390004D603046D3609A6000F05AF924E60CF173
:1053A0005B0C4FEA4C013BE68A0938325000A8E713
:1053B000BC423FF402AFBC68626822F0030261E7BE
:1053C000D8F8008098457AD11CF0030FA8F10803A3
:1053D0000CF1FF3CF4D17B6823EA00037B604000C2
:1053E00098423FF6BEAE00283FF4BBAE0342CC4627
:1053F0007FF464AE400003420CF1040CFAD05DE689
:10540000BCF5AA7F19D84FEAD53C0CF1770C4FEACE
:105410004C0105E64FF48053EEE60123C8F8043052
:10542000444600222EE7921001209040D8F8042034
:1054300019460243C8F8042075E740F254539C45CE
:105440001BD84FEA954C0CF17C0C4FEA4C01E7E578
:105450000AF1100AA3E6542B1FD80A0B6E32500033
:105460004FE7CBF30B0100297FF4B1AE0AEB090142
:10547000BA6841F001015160F6E6FC214FF07E0C64
:10548000CEE501224FF0000ACBE604F108013046D8
:1054900002F046FDDAF80030E6E6B3F5AA7F03D85D
:1054A000CA0B773250002CE740F25452934203D893
:1054B0008A0C7C32500024E7FC207E2221E77B68A6
:1054C0008DE700BF8C0C00200000000000000000F1
:1054D000830770B4C9B240D0541E2AB303788B42FC
:1054E00023D0431C04E0FCB1057814468D421CD047
:1054F00013F0030F184604F1FF3203F10103F2D158
:10550000032C14D8651E54B303788B420DD0421C73
:10551000002302E004788C4207D0AB42104603F12E
:10552000010302F10102F5D1002070BC704741EA8D
:105530000126034646EA06461A6818467240A2F15A
:10554000013525EA020212F0803F03F10403D9D1AC
:10555000043C032C1846EFD8D4E71446D0E7204685
:10556000E3E700BF000000000000000000000000B2
:105570008842F0B410D98C18A0420DD28518531E61
:1055800042B121462A4611F8014D013B02F8014D76
:105590005C1CF8D1F0BC70470F2A44D940EA0103E3
:1055A0009B0744D1A2F110073F0900EB0716103604
:1055B0000C4603462568103343F8105C65681034C8
:1055C00043F80C5C54F8085C43F8085C54F8045C3D
:1055D00043F8045CB342EDD17B1C02F00F0C1B01BD
:1055E000BCF1030F1944034423D90E461D466446FB
:1055F00056F8047B043C032C45F8047BF8D8ACF146
:10560000040424F00304043402F00302234421447C
:10561000002ABFD01A4411F8014B03F8014B934202
:10562000F9D1F0BC70470346002AF3D1B2E7034634
:10563000F0E76246002AEDD1ACE700BF00000000B1
:10564000704700BF000000000000000000000000E4
:10565000704700BF000000000000000000000000D4
:105660002DE9F04F0C4683B090468146002900F0AA
:10567000BA80FFF7E5FF08F10B0654F8043C162E3C
:1056800023F00305A4F108074BD810210E46B045BE
:105690004CD88D4251DADFF884B37819DBF808E092
:1056A000864500F0A680426822F0010C8444DCF8B4
:1056B00004C01CF0010F54D000221046DB076FD449
:1056C00054F8083CC3EB070ADAF8043023F003036C
:1056D0002B44002862D0704500F0E98002EB030EF5
:1056E0008E455BDBC3688268D046D3609A6058F809
:1056F000081FDAF80C302A1F242ACB60996000F2C8
:105700002381132A40F2B08023681B2ACAF808308C
:105710006368CAF80C3000F22B8108340AF11003D8
:10572000A3E026F00706002E3146B0DA0C23002055
:10573000C9F8003003B0BDE8F08FA046AA1B0F2ABD
:1057400003F001031AD82B437B603D446B6843F0A0
:1057500001036B604846FFF77BFF404603B0BDE89E
:10576000F08F22F0030202EB050C8C45A6DBC26829
:105770008168A046CA6065469160DFE7B919334386
:1057800042F001007B600A4448605368083143F0EE
:1057900001035360484602F0C3FBDBE78B4233DA78
:1057A00041464846FFF7F4FB80460028D2D054F823
:1057B000043CA0F1080123F001023A44914200F0B8
:1057C000BC802A1F242A6ED8132A42D803462246B8
:1057D000116819605168596092689A60214648467C
:1057E00002F09EFBB6E7114603B0BDE8F04FFFF7AD
:1057F000CFBBDEF8042006F1100C22F00302501992
:1058000060453DDA704659E7D04658F8080FDAF897
:105810000C102A1F242AC160886000F2A080132A7D
:1058200040F29B8021681B2ACAF808106168CAF8F8
:105830000C1000F2B28008340AF1100221681D46F3
:105840001160616857465160A3689360DAF80430CC
:1058500074E723681B2A03606368436062D800F121
:10586000080304F10802B3E74346226875461A604C
:10587000626857465A60A2689A60DAF804305DE7B9
:10588000831B374443F00103CBF808707B6054F866
:10589000043C484603F001031E4344F8046CFFF740
:1058A000D7FE20465AE72146FFF762FE96E702EB55
:1058B000030C06F110029445FFF670AF574657F8F7
:1058C000081FDAF80C302A1F242ACB60996000F2F6
:1058D0008680132A77D923681B2ACAF808306368A0
:1058E000CAF80C3000F2848008340AF110032268F0
:1058F0001A6062685A60A2689A60C6EB0C020AEBF2
:10590000060342F00102CBF808305A60DAF804309E
:10591000484603F001031E43CAF80460FFF798FEEF
:1059200038461BE7A368242A8360E368C3602BD052
:1059300000F1100304F110024AE750F8042CA046CD
:1059400022F003021544F9E62146404675465746C3
:10595000FFF70EFEDAF80430F0E642466EE7214625
:1059600040461D465746FFF703FEDAF80430E5E6E9
:10597000A368242ACAF81030E368CAF8143018D093
:1059800010340AF1180370E7226900F1180302616C
:10599000616904F1180241611AE7A168242ACAF872
:1059A0001010E168CAF814100FD010340AF1180270
:1059B00044E722690AF12003CAF818206269183402
:1059C000CAF81C2051E73B4691E721690AF1200201
:1059D000CAF8181061691834CAF81C102EE721465D
:1059E0003846CDF804C0FFF7C3FDDDF804C084E7F6
:1059F000A368242ACAF81030E368CAF8143003D028
:105A000010340AF1180372E722690AF12003CAF878
:105A1000182062691834CAF81C2068E78C0C002032
:105A20002DE9F04FC9B010930C9191460D9002F002
:105A300047FB00681590FFF74BFA0C9C1890A38960
:105A40001E0603D52369002B01F0818038ACA446E3
:105A500008942B9400250024CDE9164500231193CA
:105A60002D932C931A9319930E93664699F8003050
:105A7000002B00F0F880252B00F0F58009F10102E1
:105A800001E0252B04D0137814460132002BF8D105
:105A9000C9EB04057DB12C9B2D9A01332A44072BB9
:105AA000C6F8009075602D922C9300F3C2800836E2
:105AB0000E9828440E902378002B00F0C28000231B
:105AC00094F801801A468DF88F300F93099304F1F2
:105AD00001094FF0FF340A9409F10109A8F12003EC
