:1000000012C0AAC01AC12AC029C028C027C026C051
:1000100025C024C023C067C021C020C01FC01EC08F
:100020001DC01CC01BC011241FBECFE5D4E0DEBF25
:10003000CDBF10E0A0E6B0E0E2E7FAE102C0059033
:100040000D92AE36B107D9F711E0AEE6B0E001C0CF
:100050001D92A83BB107E1F797DC09CDD1CFA0B342
:10006000613031F068F0623041F0633059F402C021
:1000700070E401C070E090E205C070E090E402C05E
:1000800070E090E08F5F672F609548EC50E0B92FEB
:10009000B0951CC022B3292B22BB22B3262322BB3E
:1000A00020ED37E0FA013197F1F721503109D1F70E
:1000B00022B3272B22BB22B32B2322BB20ED37E018
:1000C000FA013197F1F721503109D1F7815011F739
:1000D000A2BB80EA9FE028EC30E0F9013197F1F70C
:1000E0000197D9F708951F920F920FB60F9211241E
:1000F0002F933F934F935F936F937F938F939F9330
:10010000AF93BF93EF93FF93F89461E088E032D50B
:1001100060E088E02FD5A2D680917100882359F045
:100120008091B601813019F0833029F403C0AD9A73
:100130005FD301C09BD3FF91EF91BF91AF919F918E
:100140008F917F916F915F914F913F912F910F9080
:100150000FBE0F901F9018951F920F920FB60F921F
:1001600011242F933F934F935F936F937F938F93BC
:100170009F93AF93BF93EF93FF93F89462E082E075
:100180006EDF8091B601823031F0833031F0813002
:1001900029F444D203C0DFD101C0B9D3FF91EF915C
:1001A000BF91AF919F918F917F916F915F914F918F
:1001B0003F912F910F900FBE0F901F90189560E008
:1001C00082E490E047DC60E080E490E043DC60E0C3
:1001D00081E490E03FDC10926F001092B200109228
:1001E000B701959A0895CF93C091B2004091B200A3
:1001F00062E770E088E0BDD58093B2000AC08C2F22
:1002000090E0FC01EE58FF4F6081805F9F4F22DC41
:10021000CF5F8091B200C81790F32091B200809117
:10022000B70190E0820F911D892B11F0959801C0C4
:10023000959A61E082E0CF9112CF1F920F920FB694
:100240000F9211242F933F934F935F936F937F935C
:100250008F939F93AF93BF93EF93FF93F89480E2B4
:100260009EE40197F1F780B363E082E0F8DE8091CD
:10027000B601823031F0833021F0813019F49FDFF4
:1002800001C0B1DFFF91EF91BF91AF919F918F912D
:100290007F916F915F914F913F912F910F900FBE82
:1002A0000F901F9018951F93CF93DF9388E893E1E9
:1002B00028EC30E0F9013197F1F70197D9F781B3D4
:1002C000806681BB88B3866088BB80ED97E001972C
:1002D000F1F7B19B41C0B5D5B29B0DC081E08093D1
:1002E000B60182E490E0AEDB80936F0080916F00F6
:1002F00081116FC069C082E08093B60181E490E013
:10030000A1DB8093B70180E490E09CDB8093B20096
:1003100010E00AC0812F90E0EC01CE58DF4F805FE3
:100320009F4F90DB88831F5F8091B200181790F376
:1003300010E00AC0812F90E0EC01CE55DF4F8050D5
:10034000904080DB88831F5F8091B701181790F37E
:1003500061E082E084DE2FC0B29B38C083E08093EE
:10036000B60181E490E06EDB8093B70180E490E019
:1003700069DB8093B20010E00AC0812F90E0EC01AD
:10038000CE58DF4F805F9F4F5DDB88831F5F80917A
:10039000B200181790F310E00AC0812F90E0EC0132
:1003A000CE55DF4F805090404DDB88831F5F80919A
:1003B000B701181790F32091B7018091B20090E037
:1003C000820F911D892B29F4959A03C084E08093B4
:1003D000B60188B3897F88BB83E490E033DB8093E8
:1003E0006E00E1D38130A9F415E0C0E5D3ECAA9A00
:1003F000CE010197F1F7D7D3882359F01150B9F7FF
:10040000813039F4AA9A1092B601959A63E082E09D
:1004100026DE80916E009091B601992311F0811132
:1004200004C0959A1092B60112C0969A88EC90E09A
:100430000197F1F785E08EBD83E085BF80EC8BBF2F
:1004400065E087E097D380E991E00197F1F7DF91CC
:10045000CF911F91089583E099D380FF02C063E09C
:1004600008C080E06CD4809371008FEF809370009F
:1004700065E08BE37FD360E080E03AC4CF93DF9305
:10048000C091B501C295CF70D091B501DF7083E006
:100490007DD380FF14C08D2F81508295880F880FE7
:1004A000807C4DD49091700021E030E00D2E01C091
:1004B000220F0A94EAF7922B9093700001C080E01B
:1004C000CD1307C090917000905890937000809366
:1004D00071008091700087FF3BC0209170002F77E2
:1004E00030E02F5F3F4F81E090E00C2E02C0880F7C
:1004F000991F0A94E2F728173907B4F46C2F01C04A
:1005000061508091700090E0062E02C0959587950D
:100510000A94E2F780FDF4CF80E1C89F600D1124BA
:100520008CE328D364E00DC08FEF8093700080913E
:100530007100C15090E4C99F800D11248093710017
:1005400065E08BE317D360E080E0DF91CF91D0C30B
:10055000DF91CF91089543E063EB71E087E4E2D24D
:100560006091B3018DE306D38091B4018330C9F06B
:1005700030F4813051F0823009F04FC008C084302F
:10058000E9F0853009F049C03FC065DF01C076DF82
:10059000809170008F3F09F040C089D410927000A4
:1005A000089562E088E0E6D260E088E0E3D261E0AE
:1005B0008BE3E0D26091710080E025C062E088E0CA
:1005C000D9D260E088E0D6D262E08BE3D3D26091EA
:1005D000B5018CE3CFD29091B5018091B5019F70A8
:1005E00082958F70981307C06091B5018091B50115
:1005F0006F73815004C08091B501815060E4829591
:10060000880F880F807C74C362E088E0B3D260E01A
:1006100088E0B0D28FEF8093700008958F929F9200
:10062000AF92BF920F931F93CF93DF9343E063EB9F
:1006300071E087E477D28091B4018330F9F030F42F
:10064000813071F0823009F0CAC00CC0883009F4E2
:1006500050C0823109F4B5C0843009F0C0C01BC05D
:10066000FADE01C00BDF809170008F3F09F0B7C048
:100670001ED41092700010927100B1C062E088E048
:1006800079D260E088E076D261E08BE373D260914A
:10069000710080E020C062E088E06CD260E088E019
:1006A00069D262E08BE366D26091B5018CE362D2DD
:1006B0009091B5018091B5019F7082958F709813CC
:1006C00013C0609171008091B5016F738150829564
:1006D000880F880F807CDF91CF911F910F91BF9081
:1006E000AF909F908F9004C38091B501815060E4DA
:1006F000EECF80916F00811156C06091B3018DE300
:1007000039D260916E008AE335D260E18BE332D258
:1007100060916E00677070E080E090E000D74B0160
:100720005C0120E030E04AEF54E49BD58B01D82FE8
:10073000C92F20E030E040E85FE3FE01712F8F2FEA
:100740009E2FC3D687FD27C020E03FEF4FE757E439
:10075000FE01602F712F8F2F9E2F63D61816A4F4E1
:1007600020E030E040E251E4C501B4017AD5B0D3D5
:1007700028EC30E005C0C9010197F1F7615071091B
:1007800061157105C1F70CC09E01602F712F832F79
:10079000922F9ED302C061E070E0CB010197F1F788
:1007A00060E080E0A5D262E088E0E4D160E088E02B
:1007B000DF91CF911F910F91BF90AF909F908F903D
:1007C000D9C180916F008111EECF8091B3018093E8
:1007D0006F006091B30182E490E03CD9E4CFDF91F7
:1007E000CF911F910F91BF90AF909F908F900895E0
:1007F0000F931F93CF93DF93C0917100C295C6955D
:10080000C695C370D0917100DF7309F0CF5FC2301D
:1008100018F062E08BE302C061E08CE3ABD10C2FF7
:100820000295007F11E00DC0612F600F8CE3A2D113
:10083000812F815060E48295880F880F807C58D288
:100840001F5F1C1788F3602F6C0F8DE393D18C2FE3
:100850008295880F880F807CDD2311F06D2F01C0F9
:1008600060E4DF91CF911F910F9142C2CF936091CD
:100870006E008AE37FD1C0E01DC0EC2FF0E0EE589F
:10088000FF4F60818DE376D1B3DF1DBC1CBC789433
:1008900004C0809170008F3F49F02CB53DB5809128
:1008A000710090E04E962817390798F3F89410924B
:1008B0007000CF5F8091B200C817F8F2C0E021C08D
:1008C000EC2FF0E0EE55FF4F60818DE353D190DFC8
:1008D0001DBC1CBC789404C0809170008F3F49F00F
:1008E0002CB53DB58091710090E04E9628173907E0
:1008F00098F3F8941092700060916F008DE33AD1F4
:10090000CF5F8091B701C817D8F2CF9108958F9229
:100910009F92AF92BF920F931F93CF93DF9343E0C9
:1009200063EB71E087E4FED06091B3018DE322D1E7
:100930008091B4018430A9F138F4823089F020F537
:10094000813009F0DCC00AC0893009F462C082310C
:1009500009F4C7C0853009F0D2C051C07CDD01C0A8
:100960008DDD809170008F3F09F0C9C09091B30177
:1009700080916F00981302C03BDF01C077DF1092B7
:10098000700010927100BBC062E088E0F3D060E0BC
:1009900088E0F0D061E08BE3EDD06091710080E001
:1009A00020C062E088E0E6D060E088E0E3D062E06A
:1009B0008BE3E0D06091B5018CE3DCD09091B50180
:1009C0008091B5019F7082958F70981313C06091CC
:1009D00071008091B5016F7381508295880F880FE7
:1009E000807CDF91CF911F910F91BF90AF909F902E
:1009F0008F907EC18091B501815060E4EECF62E0BE
:100A000088E0B8D060E088E0B5D08FEF80937000C8
:100A100076C080916F00811156C06091B3018DE363
:100A2000A9D060916E008AE3A5D060E18BE3A2D0EB
:100A300060916E00677070E080E090E070D54B01CF
:100A40005C0120E030E04AEF54E40BD48B01D82F56
:100A5000C92F20E030E040E85FE3FE01712F8F2FC7
:100A60009E2F33D587FD27C020E03FEF4FE757E4A7
:100A7000FE01602F712F8F2F9E2FD3D41816A4F450
:100A800020E030E040E251E4C501B401EAD320D2D5
:100A900028EC30E005C0C9010197F1F761507109F8
:100AA00061157105C1F70CC09E01602F712F832F56
:100AB000922F0ED202C061E070E0CB010197F1F7F6
:100AC00060E080E015D162E088E054D060E088E02A
:100AD000DF91CF911F910F91BF90AF909F908F901A
:100AE00049C080916F008111EECF8091B301809356
:100AF0006F006091B30182E490E0ACD7E4CFDF9166
:100B0000CF911F910F91BF90AF909F908F900895BC
:100B10008F5F1DBC1CBC90E02CB53DB52817390774
:100B2000D8F30895A8988FB98EB18823E9F3FB0113
:100B30009FEF06C09FB98EB18823E9F38FB18193EF
:100B40008E2F861B8417B0F3A89A0895A898806802
:100B50008FB98EB18823E9F3FB0106C080818FB97C
:100B60008EB18823E9F331968E2F861B8417B0F35C
:100B7000A89A0895A89880688FB98EB18823E9F360
:100B80006FB98EB18823E9F3A89A0895A8988FB910
:100B90008EB18823E9F38FEF8FB98EB18823E9F303
:100BA0008FB1A89A0895CF93DF93CDB7DEB767973B
:100BB0000FB6F894DEBF0FBECDBF82E18D8B8CE106
:100BC0008E8B86E18F8B86E0E0E6F0E0DE01119609
:100BD00001900D928A95E1F781E18B8786E48C87FD
:100BE0008AE08D8780E28E8788E28F8385E188871F
:100BF00083E2898792E49A879CE09A8B8B8B80E5CD
:100C00008C8B83E78F8784E6888B198AA29AAA98AF
:100C100087B38C6287BBA09AA89A81E58DB960E002
:100C200087E0A8DF6FEF85E0A5DF6FEF86E0A2DF4A
:100C300083E0ACDF84E0AADF6FE789E09BDF43E07D
:100C4000BE016B5E7F4F8BE081DF6FE18DE692DF4F
:100C500065E98CE18FDF60E48DE18CDF46E0BE0169
:100C60006F5F7F4F80E272DF6EE187E283DF6DE8C6
:100C700080E380DF44E0BE01655F7F4F82E366DF93
:100C800044E0BE01695F7F4F86E360DF60916E00E4
:100C90008AE370DF60916F008DE36CDF60916E001E
:100CA00082E468DF60E18EE665DF62E68FE662DFA0
:100CB00043E0BE016E5E7F4F80E748DF43E0BE0148
:100CC000615F7F4F85E742DF60E08EE753DF80E2C0
:100CD0005DDF91E02981281301C090E0892F67969C
:100CE0000FB6F894DEBF0FBECDBFDF91CF91089550
:100CF000CF93DF93D82FC62F61E088E03BDF60E021
:100D000088E038DFCC2359F06C2F8EE333DF6D2F72
:100D100070E06D547F4F4C2F8FE718DF08C0DD2344
:100D200031F061E08EE326DF6EEE8FE723DF69E0CE
:100D300087E020DF8C2F8C5EDF91CF91E9CECF93BF
:100D4000DF93D82F8BE422DFC82F6D2F70E06D5416
:100D50007F4F482F8FE7E6DE65E087E00BDF62E03C
:100D600088E008DF60E088E005DF8C2FDF91CF911D
:100D70000895FF920F931F93CF93DF93182FEB01EA
:100D8000042F6FEF8DE3F6DE60916E008AE3F2DEF2
:100D9000612F8BE3EFDE60E080E0AADF1DBC1CBCAE
:100DA00065E087E0E7DE102FFC2E2AC080B3843098
:100DB00039F143E063EB71E087E4B4DEFE01E10F5B
:100DC000F11D8091B5018083EC2FFD2F09C0DE015C
:100DD000A10FB11D9C918081981301C011503196D3
:100DE0008E2F8F19801798F31F5F62E088E0C2DEB4
:100DF00060E088E0BFDE65E087E0BCDE1DBC1CBCB7
:100E00002CB53DB52034314088F262E18BE3B2DE8F
:100E10000CC0FE01E00FF11D60818DE3ABDE60E0F0
:100E200080E066DF84E174DE0F5F011790F361E01C
:100E300081E015D9812FDF91CF911F910F91FF9004
:100E400008951BB888E98AB98EE880BD87E689B91C
:100E500010BC86E083BFA59AAD9A089510927100E8
:100E6000AD9820C05F9B1FC082B7873318F01092E7
:100E700071000895E0917100F0E0ED54FF4F8CB1E6
:100E8000808380917100803440F4E0917100F0E043
:100E9000ED54FF4F60818FE76DDE809171008F5FB1
:100EA0008093710012BE82B78D37E0F20895AD9A3B
:100EB00080E009C0E82FF0E0ED54FF4F90819CB92D
:100EC0005D9BFECF8F5F90917100891798F3089515
:100ED000CF92DF92EF92FF920F931F936B017C01F1
:100EE00020E030E040E05FE4C6D287FD0CC020E0A7
:100EF00030E040E05FE4C701B60189D168D38B01DF
:100F00009C01305805C0C701B60161D38B019C011B
:100F1000B801C9011F910F91FF90EF90DF90CF9022
:100F20000895A0E0B0E0E6E9F7E040C53C01CB0160
:100F3000EA01D3012C91223008F43EC1FB0130813B
:100F4000323008F436C1243071F4343009F034C141
:100F500011962C918181281709F42EC1B6E66B2ECB
:100F6000B0E07B2E29C1343009F423C1323091F432
:100F7000223009F021C128E0F301DA0101900D923D
:100F80002A95E1F7DB0111968C91F3019181892378
:100F9000898311C1223009F40CC1D3011296ED915D
:100FA000FC911397DB0112966D917C911397D301FD
:100FB00014960D911D912D913C911797DC0114967B
:100FC000CD90DD90ED90FC901797AF01461B570B2D
:100FD000DA0157FF04C0AA27BB27A41BB50BA03218
:100FE000B1050CF065C0141615067CF5B701A60115
:100FF0000A2E04C076956795579547950A94D2F7BF
:10100000812C912C5401839404C0880C991CAA1C37
:10101000BB1CAA95D2F7B1E08B1A9108A108B108C0
:101020008C209D20AE20BF20C12CD12C7601C394F2
:1010300081149104A104B10419F4C12CD12C7601BE
:10104000C42AD52AE62AF72A3EC0452BE1F1EA0F49
:10105000FB1FB901A8010A2E04C076956795579524
:1010600047950A94D2F7812C912C5401839404C0A3
:10107000880C991CAA1CBB1CAA95D2F7A1E08A1A5D
:101080009108A108B10880229122A222B32201E096
:1010900010E020E030E081149104A104B10419F4BF
:1010A00000E010E09801042B152B262B372B0BC0EA
:1010B0006E177F0724F4C12CD12C760104C0FB01EC
:1010C00000E010E09801D30111964C91DC011196DB
:1010D0008C91481709F442C0442349F0D701C60156
:1010E000801B910BA20BB30B8C019D0104C00C194A
:1010F0001D092E093F0937FD04C01982FB83EA83CD
:101100000BC081E08983FB83EA833095209510959D
:1011100001951F4F2F4F3F4F0C831D832E833F831D
:101120000DC0880F991FAA1FBB1F8C839D83AE83A0
:10113000BF838A819B8101979B838A838C819D8158
:10114000AE81BF818C019D01015011092109310936
:101150000F3F1F4F2F4F3F4320F30BC04983FB83AB
:10116000EA830C0D1D1D2E1D3F1D0C831D832E8338
:101170003F8383E088830C811D812E813F8137FF6F
:101180001AC0D901C80181709927AA27BB273695B3
:10119000279517950795802B912BA22BB32B8C832A
:1011A0009D83AE83BF838A819B8101969B838A83C3
:1011B00002C03C0101C03E01C301CDB7DEB7EEE085
:1011C00011C4A0E2B0E0E6EEF8E0FCC36D8F7E8FC4
:1011D0008F8F98A3298F3A8F4B8F5C8FBE016F5EE4
:1011E0007F4FCE014D9600D3BE01675F7F4FCE018A
:1011F0004996FAD2AE014F5F5F4FBE01675F7F4FE6
:10120000CE0141968EDE2FD2A096E2E0F7C3A0E297
:10121000B0E0ECE0F9E0D6C36D8F7E8F8F8F98A39E
:10122000298F3A8F4B8F5C8FBE016F5E7F4FCE014F
:101230004D96DAD2BE01675F7F4FCE014996D4D278
:101240008A8591E089278A87AE014F5F5F4FBE0193
:10125000675F7F4FCE01419664DE05D2A096E2E043
:10126000CDC3A0E2B0E0E6E3F9E09EC36D8F7E8FD0
:101270008F8F98A3298F3A8F4B8F5C8FBE016F5E43
:101280007F4FCE014D96B0D2BE01675F7F4FCE013A
:101290004996AAD29989923008F412C08985823081
:1012A00008F41AC0943021F4823009F4B4C008C0A4
:1012B000843021F4923009F4AEC00EC0923051F463
:1012C00081E02A899A85291301C080E08A8BCE01AA
:1012D0004196A3C0823051F481E02A899A8529136E
:1012E00001C080E08A87CE01099697C08D889E88CC
:1012F000AF88B88C0D851E852F853889E0E2F0E037
:1013000080E090E0DC01C12CD12C760140E050E07F
:10131000BA0180FE18C0400F511F621F731F8C0D51
:101320009D1DAE1DBF1D412C512C32014394401711
:1013300051076207730718F0412C512C3201840DBC
:10134000951DA61DB71DCC0CDD1CEE1CFF1C37FF28
:1013500002C06894C0F8000F111F221F331FB694FB
:10136000A794979487943197A1F62B893C89EB85B4
:10137000FC852E0F3F1F2E5F3F4F3C832B8321E0C8
:10138000EA893A85E31301C020E02A83EB81FC81DE
:101390000CC080FF05C07695679557954795706896
:1013A000B695A795979587953196B7FDF2CF9F0192
:1013B0000CC0880F991FAA1FBB1F77FD8160440FC7
:1013C000551F661F771F215031090097A105E0E4E2
:1013D000BE0778F32B833C838C019D010F77112787
:1013E00022273327003411052105310559F487FDE3
:1013F00009C0452B462B472B29F0805C9F4FAF4FF0
:10140000BF4F80788D839E83AF83B88783E08983C5
:10141000CE01019602C086E690E025D1A096E0E1DB
:10142000DFC2A8E1B0E0E6E1FAE0CCC26D8B7E8BD2
:101430008F8B988F298B3A8B4B8B5C8BBE01675FB0
:101440007F4FCE014596D0D1BE016F5F7F4FCE0159
:101450004196CAD18985823050F08981823038F036
:10146000BE016F5F7F4FCE0109962DD201C08FEF75
:101470006896E2E0C3C2A8E1B0E0E0E4FAE0A2C20C
:101480006D8B7E8B8F8B988F298B3A8B4B8B5C8BE4
:10149000BE01675F7F4FCE014596A6D1BE016F5F4B
:1014A0007F4FCE014196A0D18985823050F089814D
:1014B000823038F0BE016F5F7F4FCE01099603D2B4
:1014C00001C08FEF6896E2E099C2A8E1B0E0EAE6D9
:1014D000FAE078C26D8B7E8B8F8B988F298B3A8B3D
:1014E0004B8B5C8BBE01675F7F4FCE0145967CD1F5
:1014F000BE016F5F7F4FCE01419676D189858230E4
:1015000050F08981823038F0BE016F5F7F4FCE018D
:101510000996D9D101C081E06896E2E06FC2A8E0E7
:10152000B0E0E4E9FAE04CC223E029838B019C019E
:10153000002737FD0395112722273327402F0A83E1
:10154000611571058105910519F482E0898334C024
:101550002EE130E03C832B83442371F0611571054B
:10156000810520E8920761F1002711279801061BE9
:10157000170B280B390B02C08B019C01C901B80164
:1015800048D20197181619062CF00D831E832F835D
:10159000388712C0082E04C0000F111F221F331FEE
:1015A0000A94D2F70D831E832F8338872EE130E013
:1015B000281B390B3C832B83CE01019654D004C0E9
:1015C00060E070E080E09FEC2896E4E015C2ACE0BB
:1015D000B0E0ECEEFAE0F4C169877A878B879C87EC
:1015E000BE016F5F7F4FCE010996FED089818230A8
:1015F00091F1823080F1843041F48A81882331F185
:1016000000E010E020E030E829C02B813C8137FD6C
:1016100022C02F3131058CF78EE190E0821B930BB5
:101620000D811E812F81388504C036952795179529
:1016300007958A95D2F78A81882381F03095209585
:10164000109501951F4F2F4F3F4F08C00FEF1FEF11
:101650002FEF3FE703C000E010E09801B801C90197
:101660002C96E4E0C9C10F931F93CF93FC014481F2
:10167000558166817781C1818081823020F46061EB
:101680008FEF90E0A3C0843009F49BC0823009F44E
:1016900092C0411551056105710509F48FC0228181
:1016A000338122388FEF38070CF057C0E2E8FFEFA4
:1016B000E21BF30BEA31F10564F58A019B010E2E62
:1016C00004C036952795179507950A94D2F781E0BF
:1016D00090E0A0E0B0E004C0880F991FAA1FBB1FD4
:1016E000EA95D2F70197A109B10984239523A6238E
:1016F000B72341E050E060E070E0892B8A2B8B2B10
:1017000019F440E050E0BA01402B512B622B732BAF
:1017100003C040E050E0BA01DB01CA018F7799278E
:10172000AA27BB2780349105A105B10539F447FFED
:1017300009C0405C5F4F6F4F7F4F04C0415C5F4FFB
:101740006F4F7F4F81E090E041155105610520E426
:10175000720748F580E090E026C0203831058CF50E
:10176000DB01CA018F779927AA27BB27803491050F
:10177000A105B10539F447FF09C0405C5F4F6F4FC9
:101780007F4F04C0415C5F4F6F4F7F4F77FD04C0B8
:10179000C90181589F4F07C0769567955795479522
:1017A000C90180589F4F97E0769567955795479563
:1017B0009A95D1F70BC080E090E005C080E090E002
:1017C00005C08FEF90E040E050E0BA01982F969569
:1017D000C0FB97F9362F80FB37F9642F752F832FC5
:1017E000CF911F910F910895CF92DF92EF92DC017C
:1017F000FB01CC901196DC90119712968C91129768
:101800003FE7E32EE8226E2DA60170E0982F991F86
:101810009927991F13962C91822F880F892B90E07E
:1018200027FB222720F92183009729F5411551052F
:101830006105710511F482E027C082E89FEF938370
:10184000828327E0440F551F661F771F2A95D1F723
:1018500083E0808309C0440F551F661F771F828174
:10186000938101979383828341155105610580E43B
:10187000780788F320C08F3F910579F44115510511
:101880006105710519F484E0808319C0E4FE03C08A
:1018900081E0808310C010820EC08F57910993831E
:1018A000828383E0808387E0440F551F661F771F84
:1018B0008A95D1F770644483558366837783EF906C
:1018C000DF90CF900895CF93FC01DB01908192309F
:1018D00008F452C08C91823008F44EC0943071F4F8
:1018E000843039F411962C9130E08181281B310924
:1018F00048C08181882309F43FC03BC0843029F46B
:1019000011968C91811138C034C0923019F4823014
:10191000B9F735C0823069F3C18111968C91119766
:10192000C8131DC02281338112968D919C9113970B
:10193000821793070CF413C0281739070CF417C04B
:10194000448155816681778114968D919D910D908A
:10195000BC91A02D84179507A607B70718F4C111ED
:1019600008C00AC0481759076A077B0740F4C1112D
:1019700003C02FEF3FEF05C021E030E002C020E0C0
:1019800030E0C901CF9108958ED4C0EC65E087E0C6
:10199000F1D8CABF789481B3837F81BB85B7806853
:1019A00085BFF4CF2F923F924F925F926F927F92BA
:1019B0008F929F92AF92BF92CF92DF92EF92FF925F
:1019C0000F931F93CF93DF93CDB7DEB7CA1BDB0B0B
:1019D0000FB6F894DEBF0FBECDBF09942A883988B0
:1019E00048885F846E847D848C849B84AA84B984B7
:1019F000C884DF80EE80FD800C811B81AA81B981C3
:101A0000CE0FD11D0FB6F894DEBF0FBECDBFED01D6
:101A1000089506D084FF0895CB0102D0805F089519
:101A2000AA27992329F4A85F982B11F480E108953F
:101A3000903118F4AD5F9295A395990FE8F78A2F2E
:101A400099270895E199FECF9FBB8EBBE09A992715
:101A50008DB30895262FE199FECF9FBB8EBB2DBB82
:101A60000FB6F894E29AE19A0FBE01960895F894A1
:021A7000FFCFA6
:0E1A72005E015D86037E0000000000000000A3
:00000001FF
