:1000000012C0AEC0D3C02AC029C028C027C026C095
:1000100025C024C023C064C021C020C01FC01EC092
:100020001DC01CC01BC011241FBECFE5D4E0DEBF25
:10003000CDBF10E0A0E6B0E0E4E6F8E002C0059035
:100040000D92AA37B107D9F711E0AAE7B0E001C0D5
:100050001D92A238B107E1F7F2D302C4D1CFA0B309
:100060006150633050F470E0FB01E05AFF4F908123
:10007000FB01ED59FF4F608102C060E090E08F5FAF
:10008000762F709548EC50E0B92FB0951CC022B384
:10009000292B22BB22B3272322BB20ED37E0FA0114
:1000A0003197F1F721503109D1F722B3262B22BB2A
:1000B00022B32B2322BB20ED37E0FA013197F1F771
:1000C00021503109D1F7815011F7A2BB80EA9FE09E
:1000D00028EC30E0F9013197F1F70197D9F708954D
:1000E0001F920F920FB60F9211242F933F934F93AD
:1000F0005F936F937F938F939F93AF93BF93EF9390
:10010000FF93F89437D380917B008F3FB9F46091CF
:100110007E018DE328D180917C0090917D00811536
:10012000914029F462E08BE31ED15DD204C061E00E
:100130008BE319D116D280E180937B008CB1FF91C3
:10014000EF91BF91AF919F918F917F916F915F914F
:100150004F913F912F910F900FBE0F901F901895C8
:100160001F920F920FB60F9211242F933F934F932C
:100170005F936F937F938F939F93AF93BF93EF930F
:10018000FF93F89482D080EC8ABFFF91EF91BF91EA
:10019000AF919F918F917F916F915F914F913F911F
:1001A0002F910F900FBE0F901F9018951F920F92D6
:1001B0000FB60F9211242F933F934F935F936F933A
:1001C0007F938F939F93AF93BF93EF93FF93F89495
:1001D00061E082E044DF80EC8ABFFF91EF91BF9144
:1001E000AF919F918F917F916F915F914F913F91CF
:1001F0002F910F900FBE0F901F9018951F93CF93C4
:10020000DF9384EF91E028EC30E0F9013197F1F7CA
:100210000197D9F781B3806681BB80E090E018D365
:1002200080937A00B9D08130A1F415E0C0EADFE014
:10023000AA9ACE010197F1F7AFD0882351F011505F
:10024000B9F7813031F4AA9A10927A0063E082E023
:1002500006DF80917A00811102C0959A12C0969AA9
:1002600085E08EBD83E885BF80EC8BBF76D265E0EC
:1002700087E079D080E991E00197F1F781B3837F3E
:1002800081BBDF91CF911F91089543E06FE771E04B
:1002900087E441D0809180018330A9F028F4813037
:1002A00041F08230B9F50DC0843099F0863091F577
:1002B0001BC0CBD180917B008F3F09F4A3C286E0A5
:1002C0003FC1FED1F7CF80917B00813009F5BDD1D0
:1002D00005C080917B008130D9F4F2D180917B0000
:1002E0008F3FB1F48FD214C080917B00803191F4A4
:1002F00080917C0090917D008115914029F464E00B
:100300008BE331D070D104C063E08BE32CD029D1D2
:1003100010927B000895A8988FB98EB18823E9F3D5
:10032000FB019FEF06C09FB98EB18823E9F38FB11F
:1003300081938E2F861B8417B0F3A89A0895A898EE
:1003400080688FB98EB18823E9F3FB0106C08081F4
:100350008FB98EB18823E9F331968E2F861B8417CF
:10036000B0F3A89A0895A89880688FB98EB18823B1
:10037000E9F36FB98EB18823E9F3A89A0895A89894
:100380008FB98EB18823E9F38FEF8FB98EB18823AF
:10039000E9F38FB1A89A0895CF93DF93CDB7DEB775
:1003A00067970FB6F894DEBF0FBECDBF83E58D8B88
:1003B0008CE58E8B86E58F8B86E0E6E6F0E0DE014D
:1003C000119601900D928A95E1F781E18B8786E481
:1003D0008C878AE08D8780E28E8788E28F8385E133
:1003E000888783E2898792E49A879CE09A8B8B8B3B
:1003F00080E58C8B83E78F8784E6888B198AA29AA5
:10040000AA9887B38C6287BBA09AA89A81E58DB918
:1004100060E087E0A8DF2FEF80E792E02150804086
:100420009040E1F700C0000063E385E09CDF60E0FE
:1004300086E099DF83E0A3DF84E0A1DF6FE789E056
:1004400092DF43E0BE016B5E7F4F8BE078DF6FE1B0
:100450008DE689DF65E98CE186DF60E48DE183DF8D
:1004600046E0BE016F5F7F4F80E269DF6EE187E2A9
:100470007ADF6DE880E377DF44E0BE01655F7F4FA0
:1004800082E35DDF44E0BE01695F7F4F86E357DFB3
:1004900060917A008AE367DF60917A0082E463DF2B
:1004A0006FEF86E460DF60E18EE65DDF62E68FE697
:1004B0005ADF43E0BE016E5E7F4F80E740DF43E0DE
:1004C000BE01615F7F4F85E73ADF6AE08DE74BDF72
:1004D00060E08EE748DF80E252DF91E02981281357
:1004E00001C090E0892F67960FB6F894DEBF0FBE6B
:1004F000CDBFDF91CF91089565E087E034DF60E004
:100500008EE731DF63E088E02EDF60E088E02BDFFC
:1005100083E035DF84E033CFCF93C82F1DBC1CBCF4
:1005200080E004C0999902C083E029DF2CB53DB575
:10053000982F9C2319F421153440A0F3CF910895EE
:10054000CF93C82F61E08EE30EDF6EEE8FE70BDFF7
:100550006C2F8BE308DF69E087E005DF84E0CF9153
:10056000DBCFFF920F931F93CF93DF9360917C00BB
:1005700070917D00C62F8EE3F6DE69E087E0F3DE42
:10058000C13450F11C2F1054D0E00C2F00520DC07C
:1005900080E2C2DF60917C0070917D006F1971096B
:1005A00062587F4F40E28FE7CADEF12EFD0ED05237
:1005B000802F8D0F813260F7C154C07E1C1B80E2FA
:1005C000ABDF60917C0070917D00611B7109625806
:1005D0007F4F412F8FE7B3DE84E0DF91CF911F91F2
:1005E0000F91FF9099CF80917C0090917D000197B1
:1005F00090937D0080937C0060917D018AE3B3DE5F
:10060000B0CF1F93CF93DF931F92CDB7DEB7182FD4
:10061000462F662359F08EE34983A5DE612F70E0F3
:1006200062587F4F49818FE78ADE08C0882331F006
:1006300061E08EE398DE6EEE8FE795DE69E087E09D
:100640000F90DF91CF911F918ECECF93DF9366E312
:100650008EE789DE83E093DE8BE491DEC82F282FBE
:1006600030E030937D0020937C000EC080E154DFA9
:1006700060917C0070917D006C1B710962587F4F06
:1006800040E28FE748DEC052C13480F782E044DFA9
:10069000D82F60917C0070917D006C1B71096258AD
:1006A0007F4F4C2F8FE737DED0FD02C0D11102C043
:1006B00081E001C08FEF80937B00DF91CF9108959F
:1006C000C4DF87E45CDE80937D0180917C009091A3
:1006D0007D00019690937D0080937C000895CF93D8
:1006E000DF93D82F8BE44BDEC82F6D2F70E062585C
:1006F0007F4F482F8FE70FDE65E087E034DE62E052
:1007000088E031DE60E088E02EDE8C2FDF91CF9133
:100710000895CF93DF93CDB7DEB72D970FB6F8943A
:10072000DEBF0FBECDBF9DE0ECE6F0E0DE0111962E
:1007300001900D929A95E1F7E1E0F0E0EC0FFD1FDA
:10074000E80FF11D808189B92D960FB6F894DEBFB0
:100750000FBECDBFDF91CF91089582E08BB988E9BC
:100760008AB98EE880BD87E689B910BC84E083BF72
:10077000A59A08958FEF80937B0010927D001092D0
:100780007C0012BE8CB180937E0129C05F9B27C084
:1007900082B7873310F010927B00E0917C00F091DB
:1007A0007D00E258FF4F8CB1808380917C00909156
:1007B0007D008034910548F4E0917C00F0917D004B
:1007C000E258FF4F60818FE7CEDD80917C009091F1
:1007D0007D00019690937D0080937C0012BE82B7CD
:1007E0008D37A0F280917C0090917D0020917C005B
:1007F00030917D00232B19F08130914010F0109240
:100800007B000895AD9A80E090E008C05D9BFECF2C
:10081000FC01E258FF4F20812CB9019620917C0009
:1008200030917D008217930788F35E9A5E9BFECF1E
:10083000AD988CB18CB18CB110927B000895DEDC48
:10084000C0EC5ADECABF8CB18CB178948895F9CFD0
:10085000E199FECF9FBB8EBBE09A99278DB3089597
:04086000F894FFCF3A
:100864002040204000005E015D86037ECF67332276
:0A08740019100C0806030101000032
:00000001FF
