:1000000012C02AC029C028C027C026C025C024C0CD
:1000100023C022C021C020C01FC01EC01DC01CC0E4
:100020001BC01AC019C011241FBECFEDCDBF10E0F8
:10003000A0E6B0E0E4ECF7E002C005900D92A23932
:10004000B107D9F710E0A2E9B0E001C01D92A23AD1
:10005000B107E1F7B1D1B4C3D3CF9C011DBC1CBC27
:100060008CB59DB582179307D8F308951F93CF934E
:10007000DF93EC01162F1092A100009719F480E68F
:1000800090E0D5D24091A10010C0E42FF0E0EE56F0
:10009000FF4FCE016AE070E017D3805D8083CE0110
:1000A0006AE070E011D3EB014F5F209771F7842F66
:1000B00081508093A100912F981B892F8F5F80938F
:1000C0009A0002C080E2A1D280919A008150809370
:1000D0009A008823B9F712C0F0E0EE56FF4F8081F6
:1000E00094D28091A100823021F4133011F48EE279
:1000F0008CD28091A10081508093A100E091A10059
:10010000EE3F50F3DF91CF911F910895EF92FF9250
:100110000F931F93CF93DF9383E082BB1DBC1CBC66
:100120001092990087E060E060D280919C0081305D
:1001300041F0813020F0823009F0EEC005C08BEA3A
:1001400001C081EE62D2E8C081EBFCCF809B04C08D
:1001500080919E008823C1F580919E00813039F402
:100160001DBC1CBC8CB59DB588529342D8F38091C0
:100170009C008F5F80939C00809199008F5F80939B
:10018000990087E060E031D280919C00813029F0B5
:10019000813048F0823029F402C081EE05C081EB45
:1001A00003C010929C008BEA30D280990BC08091E2
:1001B0009E00813039F41DBC1CBC8CB59DB5805AA5
:1001C0009F40D8F31DBC1CBC819B05C080919E0044
:1001D000882309F098C020919E00213049F41DBC6D
:1001E0001CBC8CB59DB588529342D8F310929900EF
:1001F00080919C00813039F1813020F0823009F00B
:1002000073C057C0213049F480919F009091A000A5
:1002100005969093A00080939F0080919F009091FD
:10022000A000855C994020F0D093A000C0939F006F
:10023000E9D180919F009091A00063E017DF81EAEF
:10024000E4D185EE50C0213029F4809196008F5F73
:10025000809396001092A10080E061E0C6D1809169
:100260009600823089F0833028F48823E9F08130C9
:10027000C9F405C0833069F08430A1F40FC0F09256
:100280009B0088E690E00CC0E0929B008CE690E03A
:1002900007C000939B0080E790E002C084E790E0F5
:1002A000C6D122C01092960010939B0084E690E085
:1002B000F7CF213041F480919D008B5F80939D00AA
:1002C0008CB7845F8CBF84E061E08FD180919D000A
:1002D000853618F010929D001CBE80919D0090E024
:1002E00062E0C4DE85E291D181990BC080919E00CD
:1002F000813039F41DBC1CBC8CB59DB5805A9F4023
:10030000D8F31DBC1CBC80919900833069F48091A6
:100310009E00882349F40EC097E1E92E13E00BE11B
:100320008FE0F82EC4E6D0E08CB59DB58F5F9F4F6F
:1003300009F00CCF20919F003091A00040E050E0E8
:1003400068E07FEA8FE290E0D3D130939800209369
:10035000970080919900833118F187E060E045D1E2
:1003600083E453D182E090E06091960009D283E06B
:1003700090E060919D0004D26CB784E090E000D2E0
:1003800060919F007091A00085E090E007D280E22C
:100390009EE424E630E0F9013197F1F70197D9F7AF
:1003A00087E060E022D180E230D1DF91CF911F91D0
:1003B0000F91FF90EF9008951F931ABA17BA8CE32C
:1003C00081BB84E08BBB18BA93E092BB80E888B90C
:1003D0001DBC1CBC1FBC9EBD8CE041D1869B0AC0CD
:1003E00011D188E790E023D180E061E0FED08FE773
:1003F00090E01DD181E08093A10010C0B79B10C098
:10040000813071F4FFD08FE790E011D180E061E09E
:10041000ECD086E890E00BD11092A1008091A10071
:10042000869B02C08099EACFEAD012BE83E280BFE9
:1004300011E013BF84E090E098D18CBF1092A1002E
:1004400083E090E092D180939D0010929C001092E6
:100450009A0082E090E089D18093960085E090E058
:100460008CD19093A00080939F0010929E004EDE4E
:1004700010939E002CB53DB5809197009091980007
:1004800028173907D0F11DBC1CBC80919600843020
:1004900081F480919A008F5F80939A00833011F4E9
:1004A00010929A00E0919A00F0E0E257FF4F8081AD
:1004B00005C080B3809590919B00892782BB87E01F
:1004C00060E093D0869B10C08091A100B79B06C0CE
:1004D000813299F081E299D081E20DC08E3769F0C6
:1004E0008EE793D08EE707C08091A100803229F07B
:1004F00080E28BD080E28093A1008099BBCF1DBCAD
:100500001CBC8CB59DB588529342D8F3FFDDB2CFA9
:10051000662311F0C09A01C0C098C698BD9ABA9AD5
:10052000BC9ABB9AC398C498C298C59887FDC39AD1
:1005300086FDC49A85FDC29A84FDC59AC19A00C001
:10054000C198C398C498C298C59883FDC39A82FD88
:10055000C49A81FDC29A80FDC59AC19A00C0C19813
:10056000C59AC29AC49AC39A0895882311F0C09A72
:1005700001C0C098C69ABD98BA98BC98BB98C19A59
:1005800000C0B59B02C080E101C080E0B2998062EA
:10059000B4998064B3998068C19800C0C19A00C0C2
:1005A000B5998160B2998260B4998460B39988608A
:1005B000C198089580E0D9DF87FDFCCF82E090E00C
:1005C0000197F1F780E0D1DF08951F93182FF2DF34
:1005D000812F60E09DDF1F9108951F93182FEADFA0
:1005E000812F61E095DF1F910895662311F48058F3
:1005F00001C08054EADF0895DDDF90E0089581E0D6
:10060000E4DF089582E0E1DF08951F93182FD2DF21
:100610001A3041F4803410F080E001C080E480584A
:10062000D4DF03C0812F61E073DF1F910895CF9362
:10063000DF93EC0101C0E9DF89918823E1F7DF91C5
:10064000CF910895CF93DF93EC0101C0DEDFFE016F
:10065000219684918823D1F7DF91CF9108951F933C
:10066000182FB89ABE9AB99ABD9ABA9ABC9ABB9AF0
:1006700080E89EE30197F1F7C29AC59AC19A00C03B
:10068000C19880E893E10197F1F7C19A00C0C19841
:1006900080E490E0FC013197F1F7C19A00C0C19865
:1006A000FC013197F1F7C598C19A00C0C198019734
:1006B000F1F788E28ADF88E088DFA1DF86E085DF66
:1006C000812F83DF1F910895AA1BBB1B51E107C037
:1006D000AA1FBB1FA617B70710F0A61BB70B881FD2
:1006E000991F5A95A9F780959095BC01CD01089561
:1006F00097FB092E05260ED057FD04D014D00AD042
:10070000001C38F450954095309521953F4F4F4F40
:100710005F4F0895F6F790958095709561957F4F9E
:100720008F4F9F4F0895A1E21A2EAA1BBB1BFD01FC
:100730000DC0AA1FBB1FEE1FFF1FA217B307E407C0
:10074000F50720F0A21BB30BE40BF50B661F771F18
:10075000881F991F1A9469F76095709580959095F8
:100760009B01AC01BD01CF010895E199FECF1FBAF5
:100770008EBBE09A99278DB30895A8E142E013C09B
:10078000262FE199FECF1CBA1FBA8EBB2DBB0FB628
:10079000F894E29AE19A0FBE01960895F1DF272FAF
:1007A000F0CFA82F862FE82FE199FECF1FBA05C002
:1007B000EEBBE09AE3950DB20D924150C8F7089553
:0407C000F894FFCFDB
:1007C40020203000B3636500BA702000B765BB0019
:1007D40063B8BD00B265B4002020B8E3B5BF002003
:1007E400B76170C7E3006FBA6FBDC065BD00130B7E
:0207F4000700FC
:00000001FF
