:1000000012C02CC02BC02AC029C028C027C026C0BF
:1000100025C024C023C022C021C020C01FC01EC0D4
:100020001DC01CC01BC011241FBECFE5D4E0DEBF25
:10003000CDBF10E0A0E6B0E0E8EDF5E002C005902D
:100040000D92A838B107D9F711E0A8E8B0E001C0D7
:100050001D92A139B107E1F702D0BCC2D1CF0F93F5
:100060001F93CF93DF9388EB9BE028EC30E0F901FE
:100070003197F1F70197D9F78CE033D295D0182F4B
:10008000FCD1112319F080E690E002C08CE690E0EC
:1000900009D285E083BF87E065E06DD083E077D04B
:1000A00081FFFCCF87E065E066D083E070D081FF00
:1000B000FCCF80E04ED190E06DE871E04AE050E086
:1000C00051D2D8D18DE891E0EDD180E061E0C8D186
:1000D000C0E0D0E008EC10E0FE01E657FF4F808161
:1000E00090E06DE871E04AE050E03CD28DE891E0AC
:1000F000D9D180E2C5D18C2F65E028D2992341F473
:1001000080E69AEEF8013197F1F70197D9F7B2D16D
:100110002196C034D10501F780E090E0DF91CF91C6
:100120001F910F910895C2988FB98EB18823E9F37A
:10013000FB0190E02FEF07C02FB98EB18823E9F3C0
:100140008FB181939F5F9417B8F3C29A0895C298B4
:1001500080688FB98EB18823E9F3FB0190E007C076
:1001600080818FB98EB18823E9F39F5F3196941710
:10017000B8F3C29A0895C29880688FB98EB1882367
:10018000E9F36FB98EB18823E9F3C29A0895C29852
:100190008FB98EB18823E9F38FEF8FB98EB18823A1
:1001A000E9F38FB1C29A0895DF93CF93CDB7DEB74D
:1001B00067970FB6F894DEBF0FBECDBFDE01119674
:1001C000E5E8F0E083E001900D928150E1F7DE0177
:1001D0005296EFE7F0E086E001900D928150E1F752
:1001E00081E18A8786E48B878AE08C8780E28D872D
:1001F00088E28E8785E18F8783E2888B82E4898B12
:10020000DE011496ECE7F0E083E001900D9281505E
:10021000E1F7DE011796E9E7F0E083E001900D9247
:100220008150E1F787B38C6287BBBA9AC29A80E5A6
:100230008DB987E060E09FDF85E06FEF9CDF86E0AF
:100240006FEF99DF83E0A3DF84E0A1DF89E06FE750
:1002500092DF8BE0BE016F5F7F4F43E078DF8DE67A
:100260006FE189DF8CE165E986DF8DE160E483DFA2
:1002700080E2BE016E5E7F4F46E069DF87E26EE19D
:100280007ADF80E36DE877DF82E3BE01665F7F4F50
:1002900044E05DDF86E3BE01625F7F4F44E057DFED
:1002A000609189008DE367DF6091880082E463DFFD
:1002B0008EE660E160DF8FE662E65DDF80E7BE012B
:1002C0006C5F7F4F43E043DF85E7BE01695F7F4F8F
:1002D00043E03DDF8EE760E04EDF80E258DF20E064
:1002E0009A89981321E0822F67960FB6F894DEBFA3
:1002F0000FBECDBFCF91DF9108950F931F93182F9D
:10030000062F8EE338DF112381F088E061E033DFD0
:1003100088E060E030DF8FE76AE870E0402F17DFA9
:1003200080EA9FE00197F1F70EC0002361F488E0B6
:1003300061E021DF88E060E01EDF8EE361E01BDF2B
:100340008FE76EEE18DF87E069E015DF1F910F91F0
:1003500008950F931F93182F8BE419DF082F6AE875
:1003600070E0610F711D8FE7402FDDDE87E065E0F3
:1003700002DF88E062E0FFDE88E060E0FCDE802FE4
:100380001F910F910895662311F0969A01C09698D7
:10039000AD98B89AB99ABE9ABF9AC798C698C198AC
:1003A000C09887FDC79A86FDC69A85FDC19A84FDCF
:1003B000C09AAC9A00C0AC98C798C698C198C0982B
:1003C00083FDC79A82FDC69A81FDC19A80FDC09ABD
:1003D000AC9A00C0AC98C09AC19AC69AC79A0895C0
:1003E000882311F0969A01C09698AD9AB898B9985A
:1003F000BE98BF98AC9A00C0B09B02C080E101C01B
:1004000080E0B1998062B6998064B7998068AC98B1
:1004100000C0AC9A00C0B0998160B1998260B69971
:100420008460B7998860AC98089580E0D9DF87FD33
:10043000FCCF84E090E00197F1F780E0D1DF0895F0
:100440001F93182FF2DF812F60E09DDF1F91089529
:100450001F93182FEADF812F61E095DF1F91089528
:10046000662311F4805801C08054EADF0895DDDF6F
:1004700090E0089581E0E4DF089582E0E1DF0895EF
:100480001F93182FD2DF1A3041F4803410F080E02F
:1004900001C080E48058D4DF03C0812F61E073DFA6
:1004A0001F9108951F93CF93DF93EC0110E002C0DA
:1004B0001F5FE6DFFE01E10FF11D80818823C1F798
:1004C000DF91CF911F910895CF93DF93EC0101C08D
:1004D000D7DFFE01219684918823D1F7DF91CF9158
:1004E00008951F93182F8E9AA59AA49AB89AB99A2C
:1004F000BE9ABF9A80E09DE70197F1F7C19AC09A32
:10050000AC9A00C0AC9880E097E20197F1F7AC9A02
:1005100000C0AC9880E890E0FC013197F1F7AC9A0C
:1005200000C0AC98FC013197F1F7C098AC9A00C0BC
:10053000AC980197F1F788E283DF88E081DF9ADFEA
:1005400086E07EDF812F7CDF1F910895991B79E083
:1005500004C0991F961708F0961B881F7A95C9F753
:1005600080950895FB019F0142306CF045325CF4A8
:10057000642F77271BD0805D8A330CF0895D8193CF
:10058000CB010097A9F71082C90100C0DC01FC0172
:10059000672F71917723E1F7329704C07C916D93B7
:1005A00070836291AE17BF07C8F30895AA1BBB1BE7
:1005B00051E107C0AA1FBB1FA617B70710F0A61B63
:1005C000B70B881F991F5A95A9F780959095BC0184
:0805D000CD010895F894FFCF5E
:1005D800696E6974206661696C656400696E697426
:1005E8002073756363657373007364000C23505E36
:0805F800015D86037E121C1652
:00000001FF
