:1000000012C0AFC0D5C02AC029C028C027C026C092
:1000100025C024C023C067C021C020C01FC01EC08F
:100020001DC01CC01BC011241FBECFE5D4E0DEBF25
:10003000CDBF10E0A0E6B0E0E8E5FAE002C0059030
:100040000D92A437B107D9F711E0A4E7B0E001C0E1
:100050001D92AC37B107E1F7EED4FCC4D1CFA0B309
:10006000613031F068F0623041F0633059F402C021
:1000700070E401C070E090E205C070E090E402C05E
:1000800070E090E08F5F672F609548EC50E0B92FEB
:10009000B0951CC022B3292B22BB22B3262322BB3E
:1000A00020ED37E0FA013197F1F721503109D1F70E
:1000B00022B3272B22BB22B32B2322BB20ED37E018
:1000C000FA013197F1F721503109D1F7815011F739
:1000D000A2BB80EA9FE028EC30E0F9013197F1F70C
:1000E0000197D9F708951F920F920FB60F9211241E
:1000F0002F933F934F935F936F937F938F939F9330
:10010000AF93BF93EF93FF93F89436D4809175002B
:100110008F3F99F4809176009091770081159140FE
:1001200029F462E08BE30FD24FD304C061E08BE38C
:100130000AD2F8D280E18093750062E082E08FDF1E
:10014000FF91EF91BF91AF919F918F917F916F91AF
:100150005F914F913F912F910F900FBE0F901F9085
:1001600018951F920F920FB60F9211242F933F9361
:100170004F935F936F937F938F939F93AF93BF93AF
:10018000EF93FF93F8948BD063E082E068DFFF91F8
:10019000EF91BF91AF919F918F917F916F915F91FF
:1001A0004F913F912F910F900FBE0F901F90189578
:1001B0001F920F920FB60F9211242F933F934F93DC
:1001C0005F936F937F938F939F93AF93BF93EF93BF
:1001D000FF93F89461E083E042DFFF91EF91BF91DC
:1001E000AF919F918F917F916F915F914F913F91CF
:1001F0002F910F900FBE0F901F9018951F93CF93C4
:10020000DF9384EF91E028EC30E0F9013197F1F7CA
:100210000197D9F781B3806681BB81E090E012D469
:100220008093740080E090E00DD4809378018091F9
:100230007801811101C0959A9FD18130A1F415E018
:10024000C0EADFE0AA9ACE010197F1F795D18823A1
:1002500051F01150B9F7813031F4AA9A109274001C
:1002600063E082E0FCDE80917400811102C0959A07
:1002700012C0969A85E08EBD83E885BF80EC8BBF67
:1002800070D365E087E05FD180E991E00197F1F7F5
:1002900081B3837F81BBDF91CF911F91089543E0AC
:1002A00069E771E087E427D180917A018330A9F072
:1002B00028F4813041F08230B9F50DC0843099F0D6
:1002C000863091F51BC0AFD2809175008F3F09F445
:1002D00098C386E015C2F8D2F7CF809175008130BF
:1002E00009F5A1D205C0809175008130D9F4ECD216
:1002F000809175008F3FB1F484D314C08091750054
:10030000803191F480917600909177008115914031
:1003100029F464E08BE317D157D204C063E08BE388
:1003200012D100D2109275000895CF9380E0DBD2F5
:10033000C82F83E014D180FF08C066E08BE303D1AF
:1003400060E080E04FD281E007C08C2F90E0909376
:100350007700809376008FEF80937500CF9108959A
:10036000CF93DF93C0917B01C295CF70D0917B0179
:10037000DF7083E0F4D080FF14C08D2F8150829510
:10038000880F880F807CAFD29091750021E030E01B
:100390000D2E01C0220F0A94EAF7922B909375005C
:1003A00001C080E0CD130AC09091750090589093E1
:1003B000750090E0909377008093760080917500AF
:1003C00087FF44C0409175008C2F90E04F7750E03C
:1003D0004F5F5F4F21E030E00C2E02C0220F331F31
:1003E0000A94E2F742175307B4F46C2F01C061502E
:1003F0008091750090E0062E02C0959587950A942D
:10040000E2F780FDF4CF80E1C89F600D11248CE3FA
:100410009AD064E014C02FEF2093750020917600ED
:1004200030917700019746E0880F991F4A95E1F7D0
:10043000820F931F909377008093760065E08BE3A3
:1004400082D060E080E0DF91CF91CCC1DF91CF918D
:1004500008950F931F93CF93DF938091760090912F
:10046000770056E0969587955A95E1F7C82F6091E9
:10047000760070917700162F1F7309F0CF5FC2309E
:1004800018F062E08BE302C061E08CE35CD00C2FDB
:100490000295007FD1E00DC06D2F600F8CE353D02B
:1004A0008D2F815060E48295880F880F807C9AD1CF
:1004B000DF5FDC1788F3602F6C0F8DE344D08C2F47
:1004C0008295880F880F807C112311F0612F01C065
:1004D00060E488D180E180937500DF91CF911F9116
:1004E0000F91089501961DBC1CBC2CB53DB5281775
:1004F0003907D8F30895A8988FB98EB18823E9F306
:10050000FB019FEF06C09FB98EB18823E9F38FB13D
:1005100081938E2F861B8417B0F3A89A0895A8980C
:1005200080688FB98EB18823E9F3FB0106C0808112
:100530008FB98EB18823E9F331968E2F861B8417ED
:10054000B0F3A89A0895A89880688FB98EB18823CF
:10055000E9F36FB98EB18823E9F3A89A0895A898B2
:100560008FB98EB18823E9F38FEF8FB98EB18823CD
:10057000E9F38FB1A89A0895CF93DF93CDB7DEB793
:1005800067970FB6F894DEBF0FBECDBF83E58D8BA6
:100590008CE58E8B86E58F8B86E0E0E6F0E0DE0171
:1005A000119601900D928A95E1F781E18B8786E49F
:1005B0008C878AE08D8780E28E8788E28F8385E151
:1005C000888783E2898792E49A879CE09A8B8B8B59
:1005D00080E58C8B83E78F8784E6888B198AA29AC3
:1005E000AA9887B38C6287BBA09AA89A81E58DB937
:1005F00060E087E0A8DF2FEF80E792E021508040A5
:100600009040E1F700C0000063E185E09CDF60E01E
:1006100086E099DF83E0A3DF84E0A1DF6FE789E074
:1006200092DF43E0BE016B5E7F4F8BE078DF6FE1CE
:100630008DE689DF65E98CE186DF60E48DE183DFAB
:1006400046E0BE016F5F7F4F80E269DF6EE187E2C7
:100650007ADF6DE880E377DF44E0BE01655F7F4FBE
:1006600082E35DDF44E0BE01695F7F4F86E357DFD1
:10067000609174008AE367DF609178018DE363DF46
:100680006091740082E45FDF6FEF86E45CDF60E11D
:100690008EE659DF62E68FE656DF43E0BE016E5E0E
:1006A0007F4F80E73CDF43E0BE01615F7F4F85E71E
:1006B00036DF6AE08DE747DF60E08EE744DF80E207
:1006C0004EDF91E02981281301C090E0892F6796C1
:1006D0000FB6F894DEBF0FBECDBFDF91CF91089566
:1006E00065E087E030DF63E088E02DDF60E088E0F0
:1006F0002ADF60E08EE727DF83E031DF84E02FCF61
:10070000CF93C82F61E08EE31EDF6EEE8FE71BDF15
:100710006C2F8BE318DF69E087E015DF84E190E060
:10072000CF91E0CE0F931F93CF93DF93809176000C
:1007300090917700C82F60917600709177008EE3DA
:1007400002DF69E087E0FFDE60E285E0FCDE83E057
:1007500006DFC13468F11C2F1054D0E00C2F00527A
:100760000EC083B36091760070917700691B7109A8
:1007700068587F4F40E28FE7D2DE84E0F0DE912FB1
:100780009D0FD052802F8D0F813258F7C154C07EFB
:100790001C1B9999FECF84E0E2DE60917600709197
:1007A0007700611B710968587F4F412F8FE7B7DED3
:1007B00084E0D5DE63E085E0C6DE8AE090E0DF918C
:1007C000CF911F910F918ECE8091760090917700FE
:1007D00001979093770080937600609177018AE388
:1007E000B2DEA0CFCF93DF93D82FC62F662351F070
:1007F0008EE3A9DE6D2F70E068587F4F4C2F8FE796
:100800008EDE08C0882331F061E08EE39CDE6EEE60
:100810008FE799DE69E087E096DE8C2F90E04496C2
:10082000DF91CF915FCE0F931F93CF93DF931F92F2
:10083000CDB7DEB783E093DE66E38EE784DE8BE43C
:100840008EDE90E090937700809376008091760022
:1008500090917700182F90E000E012C083B3609170
:10086000760070917700641B710968587F4F40E2F1
:100870008FE7998340DE83E072DE082F99819052E2
:10088000492F410F413450F706C083B383E04983B9
:1008900066DE082F498101FFF8CF609176007091E4
:1008A0007700641B710968587F4F8FE724DE00FFD3
:1008B00002C081E001C08FEF809375000F90DF913F
:1008C000CF911F910F910895AEDF87E448DE8093AA
:1008D0007701809176009091770001969093770050
:1008E000809376000895CF93DF93D82F8BE437DE83
:1008F000C82F6D2F70E068587F4F482F8FE7FBDDC2
:1009000065E087E020DE62E088E01DDE60E088E0F0
:100910001ADE8C2FDF91CF910895CF93DF93CDB75F
:10092000DEB72D970FB6F894DEBF0FBECDBF9DE0AA
:10093000E6E6F0E0DE01119601900D929A95E1F75E
:10094000E1E0F0E0EC0FFD1FE80FF11D808189B9B7
:100950002D960FB6F894DEBF0FBECDBFDF91CF91BD
:1009600008951BB888E98AB98EE880BD19B810BC13
:1009700084E083BFA59A08958FEF8093750010924D
:1009800077001092760028C05F9B27C082B787331C
:1009900010F010927500E0917600F0917700E85821
:1009A000FF4F8CB1808380917600909177008034E6
:1009B000910548F4E0917600F0917700E858FF4FF8
:1009C00060818FE7C0DD809176009091770001967D
:1009D000909377008093760012BE82B78D37A0F295
:1009E00080917500811104C01092770010927600FA
:1009F0008091760090917700892B11F41092750008
:100A00000895AD9A80E090E008C05D9BFECFFC01A8
:100A1000E858FF4F20812CB9019620917600309143
:100A200077008217930788F35E9A5E9BFECFAD989E
:100A3000109275000895E2DBC0EC52DECABF7894D4
:100A40008895FBCFE199FECF9FBB8EBBE09A99279B
:080A50008DB30895F894FFCF67
:100A58005E015D86037ECF67332219100C080603FA
:040A68000101000088
:00000001FF
