:1000000012C0B1C0D6C02AC029C028C027C026C08F
:1000100025C024C023C06BC021C020C01FC01EC08B
:100020001DC01CC01BC011241FBECFE5D4E0DEBF25
:10003000CDBF10E0A0E6B0E0E2E3F9E002C0059039
:100040000D92A437B107D9F711E0A4E7B0E001C0E1
:100050001D92AC37B107E1F725D169C4D1CFCF9359
:10006000DF93D0B3613031F070F0623049F063302B
:1000700061F403C0A0E470E208C0A0E070E205C033
:10008000A0E070E402C0A0E070E0682F6F5FCA2FAC
:10009000C09540ED57E028EC30E0B72FB09518C080
:1000A00082B3872B82BB82B38C2382BBCA01F90146
:1000B0003197F1F70197D9F782B38A2B82BB82B3CC
:1000C0008B2382BBCA01F9013197F1F70197D9F768
:1000D000615031F7D2BB80EA9FE028EC30E0F901B3
:1000E0003197F1F70197D9F7DF91CF9108951F92DA
:1000F0000F920FB60F9211242F933F934F935F935C
:100100006F937F938F939F93AF93BF93EF93FF93DF
:10011000F89486D3809175008F3F99F48091760092
:10012000909177008115914029F462E08BE36AD1C8
:10013000ABD204C061E08BE365D16CD280E18093E7
:1001400075008CB1FF91EF91BF91AF919F918F910D
:100150007F916F915F914F913F912F910F900FBEC3
:100160000F901F9018951F920F920FB60F921124A7
:100170002F933F934F935F936F937F938F939F93AF
:10018000AF93BF93EF93FF93F894B1D080EC8ABF05
:10019000FF91EF91BF91AF919F918F917F916F915F
:1001A0005F914F913F912F910F900FBE0F901F9035
:1001B00018951F920F920FB60F9211242F933F9311
:1001C0004F935F936F937F938F939F93AF93BF935F
:1001D000EF93FF93F89461E082E041DF80EC8ABF07
:1001E000FF91EF91BF91AF919F918F917F916F910F
:1001F0005F914F913F912F910F900FBE0F901F90E5
:1002000018951F93CF93DF9384EF91E028EC30E0B3
:10021000F9013197F1F70197D9F781B3806681BB76
:1002200081E090E07CD38093740080E090E077D30D
:100230008093780180917801811101C0959AFBD05B
:100240008130A1F415E0C0EADFE0AA9ACE0101975F
:10025000F1F7F1D0882351F01150B9F7813031F422
:10026000AA9A1092740063E082E0F9DE8091740033
:10027000811102C0959A12C0969A85E08EBD83E8DE
:1002800085BF80EC8BBFBFD265E087E0BBD088E53F
:1002900092E00197F1F781B3837F81BBDF91CF912A
:1002A0001F910895AEDF80E090E02AEAFC01E85853
:1002B000FF4F20830196811531E09307B9F740E4A1
:1002C00068E770E08FE787D000E011E0C8ECD0E08D
:1002D0005ED140E468E770E08FE77DD0109377004F
:1002E00000937600D1D1CE010197F1F7F1CF87E4E9
:1002F00069E771E043E058D080917A01833011F1D1
:10030000843030F4813051F0823009F04CC010C09C
:10031000843029F1863009F046C02EC0E3D18091A7
:1003200075008F3F11F4D9D2089586E063D1089506
:1003300020D2809175008F3F11F4CFD2089586E0CE
:1003400059D1089580917500813031F4CBD18091DD
:1003500075008F3F09F4C1D2109275000895809105
:100360007500813031F405D2809175008F3F09F41A
:10037000B4D210927500089580917500803199F47F
:10038000809176009091770021E08030920729F4E7
:100390008BE364E037D078D104C08BE363E032D0E4
:1003A00039D1109275000895A8988FB98EB188231D
:1003B000E9F3442371F0262FE62FF72F9FEF9FB923
:1003C0008EB18823E9F38FB181938E2F821B84171E
:1003D000B0F3A89A0895A89880688FB98EB1882341
:1003E000E9F3442369F0962FE62FF72F80818FB928
:1003F0008EB18823E9F331968E2F891B8417B0F3D1
:10040000A89A0895A89880688FB98EB18823E9F3D7
:100410006FB98EB18823E9F3A89A0895A8988FB987
:100420008EB18823E9F38FEF8FB98EB18823E9F37A
:100430008FB1A89A0895CF93DF93CDB7DEB76797B2
:100440000FB6F894DEBF0FBECDBF83E589838CE580
:100450008A8386E58B8386E0EDE6F0E0DE01149684
:1004600001900D928A95E1F781E18A8786E48B8776
:100470008AE08C8780E28D8788E28E8785E18F878E
:1004800083E2888B82E4898B8CE08A8B87E28B8B7A
:1004900080EE8C8B83E78D8B89E68E8B1F8AA29AE8
:1004A000AA9887B38C6287BBA09AA89A81E58DB978
:1004B00060E087E0A7DF67E385E0A4DF60E086E037
:1004C000A1DF83E0ABDF84E0A9DF6FE789E09ADF9B
:1004D00043E0BE016F5F7F4F8BE07DDF6FE18DE614
:1004E00091DF65E98CE18EDF60E48DE18BDF46E032
:1004F000BE016C5F7F4F80E26EDF6EE187E282DFDC
:100500006DE880E37FDF44E0BE01665F7F4F82E3FA
:1005100062DF44E0BE01625F7F4F86E35CDF609193
:1005200074008AE36FDF609178018DE36BDF609187
:10053000740082E467DF6FEF86E464DF60E28EE6DA
:1005400061DF65EC8FE65EDF43E0BE016E5E7F4FEC
:1005500080E741DF43E0BE016B5E7F4F85E73BDF15
:100560006AE08DE74FDF60E08EE74CDF80E256DF28
:1005700091E02C81821301C090E0892F67960FB61D
:10058000F894DEBF0FBECDBFDF91CF91089565E037
:1005900087E038DF60E08EE735DF63E088E032DF58
:1005A00060E088E02FDF83E039DF84E037DF089503
:1005B0001F93CF93DF93D82F1DBC1CBC80E0C1E0FC
:1005C00010E004C0999902C083E028DF2CB53DB546
:1005D000482F4D239C2F09F0912F992339F09C2F00
:1005E0002115344008F0912F9111ECCFDF91CF917C
:1005F0001F910895CF93C82F61E08EE303DF6EEE65
:100600008FE700DF6C2F8BE3FDDE69E087E0FADE29
:10061000CF910895CF93DF9360917600709177002A
:10062000D62F8EE3EFDE69E087E0ECDED13438F1DF
:10063000CD2FC054C132B0F080E2BADF60917600B5
:10064000709177006C1B710968587F4F40E28FE70B
:10065000C2DEC052C13280F78D2F8156807ECD2FF1
:10066000C056C81B80E2A4DF6091760070917700CD
:100670006C1B710968587F4F4C2F8FE7ACDE84E00C
:1006800097DFDF91CF910895809176009091770068
:1006900001979093770080937600609177018AE3C9
:1006A000B1DEB8DF0895CF93DF93D82FC62F66232E
:1006B00059F08EE3A7DE8D2F90E0BC0168587F4F84
:1006C0004C2F8FE788DE08C0882331F061E08EE38D
:1006D00099DE6EEE8FE796DE69E087E093DEDF91CC
:1006E000CF910895CF93DF9366E38EE78BDE83E0AF
:1006F00095DE8BE493DED82F282F30E030937700FF
:10070000209376008134B0F0C82F80E151DF6091F2
:100710007600709177006C1B710968587F4F40E23A
:100720008FE742DEC052C13480F78D2F8154807E26
:10073000D052D81B82E03CDFC82F609176007091C8
:1007400077006D1B710968587F4F4D2F8FE72CDEA6
:10075000C0FD05C081E0C11180E0882321F081E067
:100760008093750003C08FEF80937500DF91CF9168
:100770000895B8DF87E452DE809377018091760098
:10078000909177000196909377008093760008957A
:10079000CF93DF93D82F8BE441DEC82F6D2F70E00D
:1007A00068587F4F482F8FE7FFDD65E087E02ADE3E
:1007B00062E088E027DE60E088E024DE8C2FDF91B5
:1007C000CF910895DF93CF93CDB7DEB72D970FB6B6
:1007D000F894DEBF0FBECDBFDE011196E0E6F0E07B
:1007E0009DE001900D929150E1F7FE01E80FF11D9F
:1007F000818189B92D960FB6F894DEBF0FBECDBFAB
:10080000CF91DF91089582E08BB988E98AB986E8B3
:1008100080BD83E389B910BC84E083BFA59A0895A5
:10082000CF93DF938FEF8093750010927700109233
:10083000760012BEC8E7D0E031C05F9B2FC082B700
:10084000873310F0109275008091760090917700B8
:1008500021E08130920728F5E0917600F091770051
:100860008CB1EC0FFD1F8083809176009091770012
:100870008034910548F4E0917600F0917700EC0F18
:10088000FD1F60818FE7BEDD80917600909177003B
:100890000196909377008093760012BE82B78D37D1
:1008A00060F28091760090917700209176003091EF
:1008B000770041E051E08130950708F440E044239F
:1008C00039F481E02115310509F080E0882311F029
:1008D00010927500DF91CF910895AD9A80917600C6
:1008E00090917700009789F080E090E05D9BFECFCB
:1008F000FC01E858FF4F20812CB901962091760029
:10090000309177008217930788F35E9A5E9BFECF43
:10091000AD988CB18CB18CB1109275000895E199AD
:10092000FECF9FBB8EBBE09A99278DB30895F894B4
:02093000FFCFF7
:10093200CF67332219100C0806030101005E015D26
:0409420086037E00AA
:00000001FF
