:1000000012C0B3C0D8C02AC029C028C027C026C08B
:1000100025C024C023C06CC021C020C01FC01EC08A
:100020001DC01CC01BC011241FBECFE5D4E0DEBF25
:10003000CDBF10E0A0E6B0E0E6E0F9E002C0059038
:100040000D92A437B107D9F711E0A4E7B0E001C0E1
:100050001D92AC37B107E1F727D153C4D1CF0F932D
:100060001F9300B3613039F0613070F0623049F0B5
:10007000633061F403C0A0E470E208C0A0E070E265
:1000800005C0A0E070E402C0A0E070E0682F6F5FE0
:100090001A2F109540ED57E028EC30E0B72FB095BF
:1000A00018C082B3872B82BB82B3812382BBCA0173
:1000B000F9013197F1F70197D9F782B38A2B82BB07
:1000C00082B38B2382BBCA01F9013197F1F7019703
:1000D000D9F7615031F702BB80EA9FE028EC30E0AD
:1000E000F9013197F1F70197D9F71F910F91089511
:1000F0001F920F920FB60F9211242F933F934F939D
:100100005F936F937F938F939F93AF93BF93EF937F
:10011000FF93F8946FD3809175008F3FA1F4809185
:1001200076009091770021E08030920729F48BE3EC
:1001300062E04ED193D204C08BE361E049D154D246
:1001400080E1809375008CB1FF91EF91BF91AF91E9
:100150009F918F917F916F915F914F913F912F91DF
:100160000F900FBE0F901F9018951F920F920FB611
:100170000F9211242F933F934F935F936F937F932D
:100180008F939F93AF93BF93EF93FF93F89495D082
:1001900080EC8ABFFF91EF91BF91AF919F918F91BA
:1001A0007F916F915F914F913F912F910F900FBE73
:1001B0000F901F9018951F920F920FB60F92112457
:1001C0002F933F934F935F936F937F938F939F935F
:1001D000AF93BF93EF93FF93F89482E061E03FDF2A
:1001E00080EC8ABFFF91EF91BF91AF919F918F916A
:1001F0007F916F915F914F913F912F910F900FBE23
:100200000F901F9018951F93CF93DF9384EF91E089
:1002100028EC30E0F9013197F1F70197D9F781B374
:10022000806681BB82E090E064D38093740083E0B9
:1002300090E05FD38093780180917801882309F45E
:10024000959ADFD08130A1F415E0C0EADFE0AA9AE8
:10025000CE010197F1F7D5D0882351F01150B9F7AD
:10026000813031F4AA9A1092740082E063E0F7DEE4
:1002700080917400882311F4959A12C0969A85E0B3
:100280008EBD83E885BF80EC8BBFA7D287E065E099
:100290009FD088E592E00197F1F781B3837F81BB1E
:1002A000DF91CF911F9108951F93ADDF10EC59D1CD
:1002B0001ABF8CB178948895FACF87E469E771E02A
:1002C00043E058D080917A01833011F1843030F4CA
:1002D000813051F0823009F04CC010C0843029F1D7
:1002E000863009F046C02EC0E7D1809175008F3F5F
:1002F00011F4DDD2089586E067D1089524D280916B
:1003000075008F3F11F4D3D2089586E05DD1089532
:1003100080917500813031F4CFD1809175008F3F8D
:1003200009F4C5D21092750008958091750081304E
:1003300031F409D2809175008F3F09F4B8D2109240
:100340007500089580917500803199F48091760050
:100350009091770021E08030920729F48BE364E0EC
:1003600037D07CD104C08BE363E032D03DD1109212
:1003700075000895A8988FB98EB18823E9F34423B6
:1003800071F0262FE62FF72F9FEF9FB98EB18823AC
:10039000E9F38FB181938E2F821B8417B0F3A89A53
:1003A0000895A89880688FB98EB18823E9F3442313
:1003B00069F0962FE62FF72F80818FB98EB18823B1
:1003C000E9F331968E2F891B8417B0F3A89A08950C
:1003D000A89880688FB98EB18823E9F36FB98EB180
:1003E0008823E9F3A89A0895A8988FB98EB1882335
:1003F000E9F38FEF8FB98EB18823E9F38FB1A89A13
:100400000895CF93DF93CDB7DEB767970FB6F89413
:10041000DEBF0FBECDBF83E589838CE58A8386E589
:100420008B8386E0EDE6F0E0DE01149601900D92FC
:100430008A95E1F781E18A8786E48B878AE08C8759
:1004400080E28D8788E28E8785E18F8783E2888BC3
:1004500092E4998B9CE09A8B8B8B80E58C8B83E765
:100460008D8B84E68E8B1F8AA29AAA9887B38C62A2
:1004700087BBA09AA89A81E58DB960E087E0A8DFE4
:100480008FEF9FE30197F1F700C063E385E0A0DF02
:1004900060E086E09DDF83E0A7DF84E0A5DF6FE713
:1004A00089E096DF43E0BE016F5F7F4F8BE079DF2D
:1004B0006FE18DE68DDF65E98CE18ADF60E48DE137
:1004C00087DF46E0BE016C5F7F4F80E26ADF6EE14E
:1004D00087E27EDF6DE880E37BDF44E0BE01665F9C
:1004E0007F4F82E35EDF44E0BE01625F7F4F86E3C1
:1004F00058DF609174008AE36BDF609178018DE3CF
:1005000067DF6091740082E463DF6FEF86E460DF91
:1005100060E18EE65DDF62E68FE65ADF43E0BE0112
:100520006E5E7F4F80E73DDF43E0BE016B5E7F4F35
:1005300085E737DF6AE08DE74BDF60E08EE748DF75
:1005400080E252DF91E02C81821301C090E0892F7C
:1005500067960FB6F894DEBF0FBECDBFDF91CF9187
:10056000089565E087E034DF60E08EE731DF63E027
:1005700088E02EDF60E088E02BDF83E035DF84E079
:1005800033DF08951F93CF93DF93D82F1DBC1CBC7E
:1005900080E0C1E010E004C0999902C083E024DF4C
:1005A0002CB53DB5482F4D239C2F09F0912F992351
:1005B00039F09C2F2115344008F0912F9111ECCF88
:1005C000DF91CF911F910895CF93C82F61E08EE303
:1005D000FFDE6EEE8FE7FCDE6C2F8BE3F9DE69E069
:1005E00087E0F6DECF910895CF93DF936091760098
:1005F00070917700D62F8EE3EBDE69E087E0E8DECE
:10060000D13438F1CD2FC054C132B0F080E2BADF1E
:1006100060917600709177006C1B710968587F4F6C
:1006200040E28FE7BEDEC052C13280F78D2F815687
:10063000807ECD2FC056C81B80E2A4DF609176007B
:10064000709177006C1B710968587F4F4C2F8FE7B2
:10065000A8DE84E097DFDF91CF9108958091760046
:100660009091770001979093770080937600609146
:1006700077018AE3ADDEB8DF0895CF93DF93D82FFB
:10068000C62F662359F08EE3A3DE8D2F90E0BC01C8
:1006900068587F4F4C2F8FE784DE08C0882331F0E5
:1006A00061E08EE395DE6EEE8FE792DE69E087E033
:1006B0008FDEDF91CF910895CF93DF9366E38EE7CE
:1006C00087DE83E091DE8BE48FDED82F282F30E0A9
:1006D00030937700209376008134B0F0C82F80E10A
:1006E00051DF60917600709177006C1B710968583A
:1006F0007F4F40E28FE73EDEC052C13480F78D2F3E
:100700008154807ED052D81B82E03CDFC82F60919C
:100710007600709177006D1B710968587F4F4D2FDF
:100720008FE728DEC0FD05C081E0C11180E088238D
:1007300021F081E08093750003C08FEF80937500F6
:10074000DF91CF910895B8DF87E44EDE8093770183
:100750008091760090917700019690937700809336
:1007600076000895CF93DF93D82F8BE43DDEC82F1A
:100770006D2F70E068587F4F482F8FE7FBDD65E0F5
:1007800087E026DE62E088E023DE60E088E020DEAD
:100790008C2FDF91CF910895DF93CF93CDB7DEB744
:1007A0002D970FB6F894DEBF0FBECDBFDE011196B8
:1007B000E0E6F0E09DE001900D929150E1F7FE013E
:1007C000E80FF11D818189B92D960FB6F894DEBF2F
:1007D0000FBECDBFCF91DF91089582E08BB988E93C
:1007E0008AB986E880BD83E389B910BC84E083BF01
:1007F000A59A0895CF93DF938FEF809375001092A1
:1008000077001092760012BEC8E7D0E031C05F9B3F
:100810002FC082B7873310F0109275008091760058
:100820009091770021E08130920728F5E0917600E1
:10083000F09177008CB1EC0FFD1F808380917600E2
:10084000909177008034910548F4E0917600F09122
:100850007700EC0FFD1F60818FE7BADD8091760095
:10086000909177000196909377008093760012BE66
:1008700082B78D3760F28091760090917700209159
:1008800076003091770041E051E08130950708F41F
:1008900040E0442339F481E02115310509F080E07E
:1008A000882311F010927500DF91CF910895AD9AD1
:1008B0008091760090917700009789F080E090E039
:1008C0005D9BFECFFC01E858FF4F20812CB90196BB
:1008D00020917600309177008217930788F35E9A13
:1008E0005E9BFECFAD988CB18CB18CB1109275002F
:1008F0000895E199FECF9FBB8EBBE09A99278DB3F7
:060900000895F894FFCFFA
:10090600CF67332219100C0806030101005E015D52
:0409160086037E00D6
:00000001FF
