:1000000012C02CC02BC02AC029C028C027C026C0BF
:1000100025C024C023C022C021C020C01FC01EC0D4
:100020001DC01CC01BC011241FBECFE5D4E0DEBF25
:10003000CDBF10E0A0E6B0E0E2EDF4E002C0059034
:100040000D92A239B107D9F711E0A2E9B0E001C0E1
:100050001D92A539B107E1F702D039C2D1CF8CE0AA
:10006000C2D082E990E060E670E02AD233D18823E2
:1000700019F087E690E002C083E790E095D081E038
:1000800065E0D1D180E090E00895662311F0969A62
:1000900001C09698AD98B89AB99ABE9ABF9AC79877
:1000A000C698C198C09887FDC79A86FDC69A85FDF7
:1000B000C19A84FDC09AAC9A00C0AC98C798C69803
:1000C000C198C09883FDC79A82FDC69A81FDC19AE6
:1000D00080FDC09AAC9A00C0AC98C09AC19AC69AEA
:1000E000C79A0895882311F0969A01C09698AD9A00
:1000F000B898B998BE98BF98AC9A00C0B09B02C09F
:1001000080E101C080E0B1998062B6998064B799BE
:100110008068AC9800C0AC9A00C0B0998160B19979
:100120008260B6998460B7998860AC98089580E041
:10013000D9DF87FDFCCF84E090E00197F1F780E004
:10014000D1DF08951F93182FF2DF812F60E09DDF2C
:100150001F9108951F93182FEADF812F61E095DF2B
:100160001F910895662311F4805801C08054EADF7E
:100170000895DDDF90E0089581E0E4DF089582E0F6
:10018000E1DF08951F93182FD2DF1A3041F4803435
:1001900010F080E001C080E48058D4DF03C0812FDC
:1001A00061E073DF1F9108951F93CF93DF93EC01FC
:1001B00010E002C01F5FE6DFFE01E10FF11D80814C
:1001C0008823C1F7DF91CF911F910895CF93DF93DB
:1001D000EC0101C0D7DFFE01219684918823D1F77D
:1001E000DF91CF9108951F93182F8E9AA59AA49A04
:1001F000B89AB99ABE9ABF9A80E09DE70197F1F745
:10020000C19AC09AAC9A00C0AC9880E097E201977E
:10021000F1F7AC9A00C0AC9880E890E0FC0131970F
:10022000F1F7AC9A00C0AC98FC013197F1F7C09897
:10023000AC9A00C0AC980197F1F788E283DF88E0C0
:1002400081DF9ADF86E07EDF812F7CDF1F910895BA
:10025000C2988FB98EB18823E9F3FB0190E02FEFAC
:1002600008C02FB98FB180838EB18823E9F39F5FD7
:1002700031969417B0F3C29A0895C29880688FB9E6
:100280008EB18823E9F3FB0190E007C080818FB92C
:100290008EB18823E9F39F5F31969417B8F3C29A21
:1002A0000895C29880688FB98EB18823E9F36FB939
:1002B0008EB18823E9F3C29A0895C2988FB98EB19E
:1002C0008823E9F38FEF8FB98EB18823E9F38FB1DB
:1002D000C29A0895DF93CF93CDB7DEB767970FB675
:1002E000F894DEBF0FBECDBFDE011196EEE8F0E060
:1002F00083E001900D928150E1F7DE015296E8E82B
:10030000F0E086E001900D928150E1F781E18A876B
:1003100086E48B878AE08C8780E28D8788E28E87EF
:1003200085E18F8783E2888B82E4898BDE011496D6
:10033000E5E8F0E083E001900D928150E1F7DE0105
:100340001796E2E8F0E083E001900D928150E1F72A
:1003500087B38C6287BBBA9AC29A80E58DB987E071
:1003600060E09FDF85E06FEF9CDF86E06FEF99DF55
:1003700083E0A3DF84E0A1DF89E06FE792DF8BE019
:10038000BE016F5F7F4F43E078DF8DE66FE189DF6D
:100390008CE165E986DF8DE160E483DF80E2BE0108
:1003A0006E5E7F4F46E069DF87E26EE17ADF80E3D1
:1003B0006DE877DF82E3BE01665F7F4F44E05DDF7B
:1003C00086E3BE01625F7F4F44E057DF60918000AB
:1003D0008DE367DF6091810082E463DF8EE660E198
:1003E00060DF8FE662E65DDF80E7BE016C5F7F4F16
:1003F00043E043DF85E7BE01695F7F4F43E03DDFB8
:100400008EE760E04EDF80E258DF20E09A899813A3
:1004100021E0822F67960FB6F894DEBF0FBECDBFE6
:10042000CF91DF9108950F931F93082F162F8EE31E
:1004300038DF002391F088E061E033DF88E060E09E
:1004400030DF602F70E06E567F4F8FE7412F15DF52
:1004500080EA9FE00197F1F70EC0112361F488E074
:1004600061E01FDF88E060E01CDF8EE361E019DF00
:100470008FE76EEE16DF87E069E013DF1F910F91C3
:1004800008950F931F93182F8BE417DF082F88E42C
:1004900062E971E043E0DCDE62E970E0610F711D4A
:1004A0008FE7402FD5DE88E062E0FBDE88E060E089
:1004B000F8DE87E065E0F5DE802F1F910F9108954B
:1004C000FB01DC0101900D920020E1F70895F89402
:0204D000FFCF5C
:1004D20065656565656500696E6974206661696C4C
:1004E200656400696E697420737563636573730074
:1004F200AAAA7364000C23505E015D86037ED2DCDF
:02050200D60021
:00000001FF
